:100000000C9431050C944E050C944E050C942A2941
:100010000C944E050C944E050C944E050C944E0514
:100020000C944E050C944E050C94E0250C94C826B7
:100030000C9490140C944E050C944E050C944E05A3
:100040000C944E050C944E050C944E050C944E05E4
:100050000C944E050C94BC250C944E050C944E0546
:100060000C944E050C944E050C944E050C944E05C4
:100070000C944E050C944E050C944E050C944E05B4
:100080000C944E050C944E050C944E050C944E05A4
:100090000C944E050C944E050C944E050C944E0594
:1000A0000C944E050C944E050C944E0500AF00AE1A
:1000B0000000000000003E5B4F5B3E003E6B4F6B5C
:1000C0003E001C3E7C3E1C00183C7E3C18001C5729
:1000D0007D571C001C5E7F5E1C0000183C18000051
:1000E000FFE7C3E7FF00001824180000FFE7DBE785
:1000F000FF0030483A060E00262979292600407F65
:1001000005050700407F05253F005A3CE73C5A00A3
:100110007F3E1C1C0800081C1C3E7F0014227F220E
:1001200014005F5F005F5F0006097F017F000066CB
:1001300089956A0060606060600094A2FFA29400EC
:1001400008047E04080010207E20100008082A1CE5
:100150000800081C2A0808001E10101010000C1EB1
:100160000C1E0C0030383E383000060E3E0E0600E5
:1001700000000000000000005F0000000007000712
:100180000000147F147F1400242A7F2A12002313F6
:10019000086462003649562050000008070300003A
:1001A000001C224100000041221C00002A1C7F1C70
:1001B0002A0008083E080800008070300000080887
:1001C0000808080000006060000020100804020019
:1001D0003E5149453E0000427F4000007249494976
:1001E00046002141494D33001814127F1000274565
:1001F000454539003C4A4949310041211109070070
:10020000364949493600464949291E000000140074
:1002100000000040340000000008142241001414C3
:1002200014141400004122140800020159090600A8
:100230003E415D594E007C1211127C007F494949B4
:1002400036003E41414122007F4141413E007F490D
:10025000494941007F09090901003E4141517300AC
:100260007F0808087F0000417F4100002040413F97
:1002700001007F08142241007F40404040007F027F
:100280001C027F007F0408107F003E4141413E0078
:100290007F09090906003E4151215E007F091929A5
:1002A000460026494949320003017F0103003F40CF
:1002B00040403F001F2040201F003F4038403F008B
:1002C0006314081463000304780403006159494D62
:1002D0004300007F4141410002040810200000411A
:1002E00041417F00040201020400404040404000C0
:1002F0000003070800002054547840007F2844443D
:100300003800384444442800384444287F00385496
:100310005454180000087E0902001824241C780098
:100320007F080404780000447D4000002040403DE8
:1003300000007F102844000000417F4000007C0442
:10034000780478007C080404780038444444380079
:100350007C1824241800182424187C007C08040429
:10036000080048545454240004043F4424003C40F2
:1003700040207C001C2040201C003C4030403C00C1
:100380004428102844004C9090907C004464544CC5
:1003900044000008364100000000770000000041E2
:1003A000360800000201020402003C2623263C001D
:1003B000000000000000000000000000000000003D
:1003C000C0E0F0F8F81800C0F0FCFEFFFFFFFFFFF0
:1003D000FFFF7E00000000000000000080C0E0E0A1
:1003E000E0E0E0E0E0E0C0800000000080C0E0E08D
:1003F000E0E0E0E0E0E0C080000000E0E0C0C0E05D
:10040000E0E0E00000E0E0C0C0E0E0E0E0E0C0806C
:100410000000000080C0E0E0E0E0E0E0E0E0C0805C
:100420000000000000000000000000000000E0F0FC
:10043000F0F0E0ECEEF7F37020007C7C7C7E007E38
:100440007E7E7F7F7F000080C0E07E5B4F5BFEC0D2
:100450000000C000DCD7DEDEDED7DC00C00000001C
:10046000000000000000000000000000000000008C
:10047000000000000000000000F8FCFEFFE000FFAC
:10048000FFFFFFFFFF80FFFFFFFFFFFFFFFFFF1FDB
:100490000701000000000000000000FFFFFF8100D6
:1004A000000000000081C3C3C30000FFFFFF810004
:1004B000000000000081FFFFFF0000FFFFFF0100C0
:1004C0000000000000FFFFFF010000000001FFFF2F
:1004D000FF0000FFFFFF9D1C1C1C1C1C1C9DDFDF80
:1004E000DF000000000000000000000000000F1FFF
:1004F0003F7F7F7F7F7F3F1E0C001F1F1F3F003FFE
:100500003F3F7F7F7F00307B7F7830202030787FB7
:100510003B0003000F7F0F0F0F7F0F000300000051
:1005200000000000000000000000000000000000CB
:10053000000000000000000000030F1F3F3F3F3F8E
:100540001F1F3F3F7F7F7F3F3F1F3F7F7F7F7F7C1E
:100550007878381C0F000000000000000103070736
:10056000070707070707030100000000010307074B
:100570000707070707070301000000070707000038
:100580000000000000070707000000000000070748
:100590000700000001030707070707070707030114
:1005A000000000000000000000000000000000004B
:1005B000000000000000000000000000000000003B
:1005C000000000000000000000000000000000002B
:1005D000000000000000000000000000000000001B
:1005E000000000000000000000000000000000000B
:1005F00005010980A101850319012AB7001501260B
:10060000B700950175108100C0050C0901A1018595
:100610000419012AA002150126A002950175108176
:1006200000C005010906A1018506050719E029E7B3
:10063000150025019508750181020507190029EFAC
:100640001500250195F0750181020508190129059C
:10065000950575019102950175039101C005010988
:1006600006A101050719E029E71500250195087580
:100670000181029501750881010507190029FF15FF
:100680000026FF0095067508810005081901290557
:1006900015002501950575019102950175039101DC
:1006A000C009023B00020100A0FA09040000010396
:1006B0000101000921110100012244000705810305
:1006C00008000109040100010300000009211101D3
:1006D0000001226D000705820320000112010002C3
:1006E00000000008534601000100010200010C0354
:1006F00043006F0072006E0065000000100366008A
:100700006F006F007300740061006E00000004034E
:1007100009040001010101010101010102020202BB
:10072000020202020203030303030303030404049B
:100730000404040405050505050606060606070764
:1007400007070708080808090909090A0A0A0B0B1C
:100750000B0C0C0C0D0D0D0E0E0E0F0F0F101011BB
:100760001111121213131414151516161717181841
:1007700019191A1A1B1B1C1D1D1E1E1F20202122A9
:1007800022232424252626272829292A2B2C2D2DEF
:100790002E2F30313232333435363738393A3B3C0C
:1007A0003D3E3F404142434445464748494A4C4DFF
:1007B0004E4F50515354555658595A5B5D5E5F61C8
:1007C0006264656668696B6C6D6F7072737577785B
:1007D0007A7B7D7E8082838587888A8C8E8F9193B9
:1007E0009596989A9C9EA0A2A3A5A7A9ABADAFB1E0
:1007F000B3B5B7BABCBEC0C2C4C6C9CBCDCFD1D4C5
:10080000D6D8DBDDDFE2E4E7E9EBEEF0F3F5F8FA6A
:10081000FDFF00DA0281FFD9F1DB20A4A62EAF0094
:10082000A0C0D30000A1C8D30000AED580A81F404F
:100830008D142000808182838485868788898A8BB5
:100840008C8D8E8F9091929394A0A1A2A3A4A5A623
:10085000A7A8A9AAABACADAEAFB0B1B2B3B4C0C19A
:10086000C2C3C4C5C6C7C8C9CACBCCCDCECFD0D1F0
:10087000D2D3D4003A002C206B007800556E64650A
:10088000660041646A757374005261697365004C57
:100890006F7765720044656661756C74004C6179B0
:1008A00065723A20002B0014001A0008001500178A
:1008B00000E10004001600070009000A00E0001D26
:1008C000001B00060019000500000000000000E306
:1008D0000021522C002A00130012000C0018001CEA
:1008E000004C0033000F000E000D000B00290038F3
:1008F000003700360010001100000000000000E288
:1009000000225228000000560062005F0060006173
:10091000000000570067005C005D005E00000054AE
:1009200000550059005A005B00000000000000E381
:100930000001002C0000000000000000000000008A
:1009400000000000000000000000000000000000A7
:10095000000000000000000000000000000000E2B5
:1009600000235228000000000000000000000000EA
:10097000000000000000000000000000003A003B02
:10098000003C003D003E003F00000000000000E38E
:100990000023522C00490000004B004D0052004A39
:1009A00000000000004E004F005100500045004480
:1009B000004300420041004000000000000000E24F
:1009C000000100280035141E021F0220022102220D
:1009D0000200000000000000000000000000000015
:1009E000000000000000004600000000000000E3DE
:1009F0000001002C002D00270226022502240223DC
:100A000002E100340030142F14000000006402647E
:100A1000003214341400000000000000000000E662
:100A20000001002800202020206162636465666761
:100A300068696A6B6C6D6E6F7071727374757677BE
:100A400078797A3132333435363738393052454255
:100A5000545F2D3D5B5D5C233B27602C2E2F2020B7
:100A6000200011241FBECFEFDAE0DEBFCDBF27E0AC
:100A7000ACEAB2E001C01D92A033B207E1F712E088
:100A8000A0E0B1E0E4E7F8E502C005900D92AC3AD1
:100A9000B107D9F70E94AF200C94ED2B0C94000005
:100AA0009093E8068093E70608959093EA06809372
:100AB000E906089521E030E002C0220F331F8A9535
:100AC000E2F78091E9069091EA06822B932B0E942F
:100AD0005505089521E030E002C0220F331F8A95AA
:100AE000E2F7209530958091E9069091EA068223FD
:100AF00093230E9455050895983090F5863080F52F
:100B0000E82FF0E086E0989FE00DF11D11248E2F74
:100B1000877041E001C0440F8A95EAF783E0F695BB
:100B2000E7958A95E1F7EE0FFF1FEE0FFF1FE354E5
:100B3000F94F20E030E070E05191DF01CB01022E4F
:100B400002C0969587950A94E2F781708195852772
:100B5000842385278E932F5F3F4F2430310561F723
:100B60000895983078F5863068F5E82FF0E086E053
:100B7000989FE00DF11D11249E2F977083E0F6954C
:100B8000E7958A95E1F7EE0FFF1FEE0FFF1FE35485
:100B9000F94F40E050E080E0219130E0092E02C0A2
:100BA000369527950A94E2F721703327042E01C069
:100BB000220F0A94EAF7822B4F5F5F4F44305105B2
:100BC00059F7089580E008958091F0069091EF061E
:100BD000981301C008958F5F8770FACF9091EB064C
:100BE000809589238093EB06282F277021110DC053
:100BF000891759F09091ED0692FF07C0869586956A
:100C000086950E946A051092EB0608958091E4068D
:100C10009091EE06892B5091E506511591F0909137
:100C20004B01913021F49091EC0697FD0BC096E0BA
:100C300020EB32E040E0915048F441111092E5067B
:100C4000852B08959EE128EB32E0F4CFF901619104
:100C50009F01611581F34F5FEECF982F90958091A2
:100C6000E40689238093E40608957830B8F466306A
:100C7000A8F48430B0F4E62FF0E096E0799FE00D20
:100C8000F11D112490E3899FE00DF11D1124EE0F59
:100C9000FF1FEB55F74F85919491089580E090E008
:100CA000089581E0FCCF9C01803E910509F448C085
:100CB000D8F48133910509F47DC048F48932910557
:100CC00009F46DC08A9709F47CC0C901089589337D
:100CD000910551F18238910539F1C597B1F78091AD
:100CE000EC0685FFF2CF29C0843E910509F447C088
:100CF00048F4823E910599F1833E9105A9F121EED8
:100D000030E0E3CF863E910509F444C0873E91056B
:100D1000E1F68091EC0683FD61C09091ED0691FFB4
:100D20002BC024EE30E0D1CF8091EC06837081118E
:100D300052C08091ED0683FFC8CF29E230E0C5CFD5
:100D40008091EC0680FD33C09091ED0690FFBDCF01
:100D500023EE30E084FFB9CF20E030E0B6CF8091C1
:100D6000EC0682FDF5CFB1CF8091EC0682FD30C05C
:100D70009091ED0690FD2FC084FFA7CFEDCF80911D
:100D8000ED0681FFA2CF8091EC0627EE30E084FDD6
:100D9000E3CF9BCF8091EC0683FDF7CF96CF809178
:100DA000EC0685FD1EC08091ED0683FF8ECF29E302
:100DB00030E08BCF8091EC0686FF87CF2AE230E0CF
:100DC00084CF8091EC0686FF80CF21E330E07DCF99
:100DD00022EE30E07ACF20EE30E077CF26EE30E022
:100DE00074CF25E330E071CF9091EC0692FF10C0F4
:100DF00041E0282F2471243009F040E031E0282F11
:100E00002871283009F030E0431711F02CE08227D8
:100E100093FF10C041E0282F2471243109F040E0F5
:100E200031E0282F2871283109F030E0431711F004
:100E30002CE082273091ED0630FF10C051E0282FC2
:100E40002171213009F050E041E0282F287128302D
:100E500009F040E0541711F029E0822731FF10C05B
:100E600041E0282F2171213109F040E031E0282FA5
:100E70002871283109F030E0431711F029E082276A
:100E800094FD877E08951F93CF93DF930E945306AE
:100E9000EC01811522E5920708F055C0811540E567
:100EA000940708F0D1C0803E910520F58D3C910556
:100EB00008F0A4C0883A910570F4853A910508F0CD
:100EC0009AC081309105D1F10497813A9105B0F132
:100ED000C0E0D0E033C0885A91094B97C8F7C85A90
:100EE000D0E0CC0FDD1FC05CDD4F0990D881C02D54
:100EF000D46424C0811550E49507C0F4C11580E284
:100F0000D80708F0B7C0C83ED105C0F0CE019A9509
:100F100081159F41E8F68D2F0E94F406182FCE010F
:100F200099270E945306EC01D12B08C099270E94F3
:100F30005306CC27DF70C82BD92BD06ACE01DF91A6
:100F4000CF911F910895803842E59407C8F5803607
:100F500052E5950708F05BC0C03482E5D807D0F4AD
:100F6000C03292E5D90708F04BC08C2F8695869544
:100F700020E2829FC0011124C37021E030E0A9016A
:100F800002C0440F551FCA95E2F7EA01C82BD92BBE
:100F9000DD68D4CF8C2F86958695877050E2859F2B
:100FA000C0011124C37021E030E0A90102C0440F48
:100FB000551FCA95E2F7EA01C82BD92BDC68BECFD2
:100FC000803C52E5950758F48F71C03AD245A0F5A0
:100FD00090E0982F8827EC01C46FD06AAFCF805C77
:100FE0009245809708F074CFDC2FCC27CC27DF7197
:100FF000C06FD06AA3CFA497D064A0CFD0659ECF96
:10100000CF71D0E0DC2FCC27C16FD06A97CF869507
:101010008695877020E2829FC0011124C37021E071
:1010200030E0A90102C0440F551FCA95E2F7EA015A
:10103000C82BD92BDA6882CF0E94F406C82FD0E0E3
:10104000DC2FCC27D0627ACF8F710E94F40693E018
:10105000CC0FDD1F9A95E1F7CC27DF70282F30E009
:1010600084FF04C050E1859F90011124C22BD32B33
:10107000D06964CF8D2F8F710E94F406182FCE0196
:1010800099270E945306EC01D12BDCCFA0E0B0E001
:10109000ECE4F8E00C94622A8C01E090E906F09010
:1010A000EA068091E7069091E806E82AF92ACFE05F
:1010B000D0E0CC24C394D12CC6010C2E02C0880FE2
:1010C000991F0A94E2F78E219F21892B49F42197D9
:1010D00098F7B12C8B2DCDB7DEB7E9E00C947E2AC2
:1010E000BC2EB8018C2F0E9435060E944307019741
:1010F00071F3F0CF0F931F93CF93FC018581008193
:101100001181811591F0611581F0C8010E94460896
:10111000C82F682FC8010E947C05B8018C2F0E943F
:101120003506CF911F910F910895C8010E94B10516
:10113000C82FF3CFCF93DF93D82FC92F0E94460833
:101140006D2F7C2F0E9435060E944307DF91CF91BF
:101150000895FC0184818115A1F0808191810E9414
:101160009A08282F92959F70963099F060F4925FBC
:101170009F70923030F4203FB1F038F481E0283E87
:1011800038F080E008959A5FF3CF81E0243FC9F7FB
:10119000089591E0213F09F090E081E0283E08F0B9
:1011A00080E0892B089581E0089580E00895F89407
:1011B000E82FE295EF70F0E041A18F7021E030E080
:1011C000B90102C0660F771F8A95E2F7CB01962F0F
:1011D0009095942391A392A1892B82A3789408954A
:1011E000CF92DF92EF92FF921F93CF93DF93172F4F
:1011F000E82FF0E0EE5EF84F71110CC0E4918E2FF5
:101200007E2F6E2FDF91CF911F91FF90EF90DF9097
:10121000CF900895E62EF12CC72ED12CF491EF2F0C
:1012200086E0689F90011124CFEFD0E0C901BE0194
:101230000E94452AAB01EE0CFF1C65E5649FC001CE
:10124000659F900D1124E81AF90A6E2D660F6E0D38
:101250007E01EC18FD08FE9DD001FF9DB00D11240C
:101260008B2F169F70011124EF2CFF246E01CE18D6
:10127000DF087601FE9D6001FF9DD00C11247E01E8
:10128000E61AF108B701169F7001179FF00C1124A0
:10129000EF2CFF24CE19DF09FC9F7001FD9FF00C9D
:1012A00011247F2D43305105C1F02C3F334058F4B9
:1012B00041305105B1F04230510509F0A2CFEB2F7A
:1012C0008F2D7F2F9ECF4430510571F04630510550
:1012D00009F497CF7B2F8D2D94CF7D2DEB2F8F2F62
:1012E00090CF7F2FED2D8DCFEF2D7B2FF8CF40911D
:1012F0000B0150910C0125E038E0429FC001439F53
:10130000900D529F900D1124875E994C90930C0183
:1013100080930B01890F0895482F2695E22F26FD13
:10132000E0959E2F9F7026FD9F5FE695E695E695DA
:10133000E670F0E0EE5AFE4F3181399F302D912D4D
:10134000112432953F709295907F392B9081930FA5
:1013500027FD919597FD9195990F292F249F212D78
:101360001124822F0895FC0180918C06811104C004
:10137000EB31F1050CF07B97CF010E94190A08951B
:10138000FF920F931F93CF93DF93182F062FF42E06
:10139000C0E0D0E02F2D402F612FCE010E94B30975
:1013A0002196C633D105B1F7CDB7DEB7E5E00C9491
:1013B000822A9BE0899F802D1124980F973308F093
:1013C00096E320918C06211104C08B3128F48BE127
:1013D00008959C3108F09BE10895EBEDF6E08081E3
:1013E00091E08927808310924E018091E30681600D
:1013F0008093E3060895EBEDF6E024813AE0230FB5
:1014000008F42FEF24838091E30681608093E30644
:101410000895EBEDF6E024813AE0231B08F420E088
:1014200024838091E30681608093E3060895539AB4
:101430000895FC01EE0FFF1FE80FF91FEC5FFC4F52
:10144000618340832283089580918B06811559F032
:10145000E091B306F091B406309729F00190F08145
:10146000E02D0995089580E00895A3E0B0E0EBE356
:10147000FAE00C94692A9C01809102039091030385
:1014800082179307A1F03093030320930203E091A6
:10149000B306F091B406309751F083E089833B8323
:1014A0002A830084F185E02DCE01019609952396CB
:1014B000E2E00C94852AA3E0B0E0E1E6FAE00C94C7
:1014C000692A9C0180910003909101038217930780
:1014D000A1F03093010320930003E091B306F09153
:1014E000B406309751F084E089833B832A830084DB
:1014F000F185E02DCE01019609952396E2E00C944A
:10150000852A90914B01913091F0A0EBB2E0EFEF82
:1015100090E02D91821751F0EF3F19F4211101C095
:10152000E92F9F5F9630A9F7EF3FC9F40895909196
:10153000EC0697FFEACFE82FE695E695E695803F23
:10154000A8F7F0E0EA54FD4F877021E030E001C0D9
:10155000220F8A95EAF78281822B828308950E2ECC
:10156000000CFF0BE255FD4FF8CF90914B019130ED
:1015700021F49091EC0697FD0CC0E0EBF2E0919124
:10158000891302C0DF011E9252E0E63BF507B9F76E
:101590000895E82FE695E695E695803FC8F7F0E0D8
:1015A000EA54FD4F877021E030E0A90102C0440FEA
:1015B000551F8A95E2F7CA0180959281892382831B
:1015C000089580914A0108952FB7F8946091FC0224
:1015D0007091FD028091FE029091FF022FBF08954D
:1015E000CF92DF92EF92FF9280918B06811559F096
:1015F0000E94E40A6B017C01C701B601FF90EF90E5
:10160000DF90CF9008950E94E40AC0908D06D0909C
:101610008E06E0908F06F0909006C60ED71EE81E4C
:10162000F91EEACF87E797E79093010880930008B7
:1016300088E19AE00FB6F894A895809360000FBEF9
:1016400090936000FFCF0895FC019B018091F2020E
:101650009091F3028617970740F0672B29F4809149
:10166000E8008E778093E800C90140E0009741F4DC
:10167000411106C08091E80082FF2FC080E00895EC
:101680002091EE032115A9F12530A9F12091E80060
:1016900023FD2DC02091E80022FDECCF2091E80031
:1016A00020FFE4CF3091F3002091F200009719F071
:1016B0002830310558F041E02830310509F040E08C
:1016C0002091E8002E772093E800D0CF41914093FD
:1016D000F10001972F5F3F4FE9CF8091EE03811515
:1016E00041F0853041F08091E80083FFC3CF81E075
:1016F000089582E0089583E008958091EC0287FFC9
:1017000013C08091E80082FF06C08091E8008B77CB
:101710008093E80008958091EE038111F2CF08953F
:101720008091EE038115D9F38091E80080FFF8CF16
:101730008091E8008E77ECCF2091E4003091E500B5
:1017400095E6A9012091EC00822F817020FF06C050
:101750008091E80080FF06C080E008952091E800B5
:1017600022FD1AC08091EE03811589F0853089F041
:101770008091EB0085FD0FC02091E4003091E500E1
:1017800042175307F9F29A95E1F684E0089582E052
:10179000089583E0089581E00895E8EDF0E0808108
:1017A0008E7F80831092E2001092DA001092E100A6
:1017B000A0EEB0E08C9181608C9380818F778083E4
:1017C00019BCA7EDB0E08C918E7F8C9380818F7EC9
:1017D00080831092EB020895FC01AC014C5F5F4FD7
:1017E0008FEF61E39191892728E030E0982F990FDE
:1017F00087FF09C0892F862721503040B9F7E417A9
:10180000F50781F70895892FF7CF9091DB06937044
:10181000911591F0853008F084E0880F880F909141
:10182000DB069370892B8093DB0610924E0180912A
:10183000E30681608093E30608958091DB06869538
:1018400086958F5F853008F081E00E94050C089531
:101850008091DB06869586958A9509F484E00E943E
:10186000050C08959091DB069370911571F08093AB
:10187000DC066093DD06493708F048E74093DE0652
:101880008091E30681608093E3060895EBEDF6E036
:10189000818190E04381628108960E94320C089514
:1018A000EBEDF6E08181438162818850990B0E94C3
:1018B000320C0895EBEDF6E0628128E0620F08F447
:1018C0006FEF8181438190E00E94320C0895EBED2F
:1018D000F6E0628128E0621B08F460E081814381C8
:1018E00090E00E94320C0895EBEDF6E0438128E091
:1018F000420F08F44FEF8181628190E00E94320C28
:101900000895EBEDF6E0438128E0421B08F440E047
:101910008181628190E00E94320C0895982F90930B
:10192000E900891771F07091EC002091ED00509161
:10193000F00021FD09C09F5F973089F78093E9008F
:101940000895762F242F50E03091EB003E7F3093A6
:10195000EB003091ED003D7F3093ED003091EB00D6
:1019600031603093EB007093EC002093ED005093C6
:10197000F0002091EE0027FDDECF0895A0E0B0E05A
:10198000E4ECFCE00C94632AC8EDD0E088818F7E03
:101990008883E7EDF0E080818160808384E082BF0E
:1019A00081E08093EB0288818E7F888302EE10E0D5
:1019B000F80110821092DA0081EEC82ED12CF601C7
:1019C000108288818F778883888180688883888166
:1019D0008F7D888319BC1092EE031092EA02109258
:1019E000ED031092E90290EEE92EF12CF7018081CF
:1019F0008B7F808388818160888342E060E080E023
:101A00000E948E0CF60180818E7F8083F801808198
:101A100081608083808188608083F70180818E7FF0
:101A20008083888180618883CDB7DEB7E8E00C943D
:101A30007F2AE091F0069091EF0627E0E91302C0BB
:101A400080E00895AE2FB0E02E9FF0011124EF50FA
:101A5000F94F3181361306C03081381303C0358108
:101A6000341304C0FD013196E770E8CF81E008959A
:101A70003BB1377F2BB128604FB7F89484E093E0F7
:101A8000FC010196508168E02BB9000000C057FFAF
:101A90003BB9550F000000C000C000C03BB900C0FA
:101AA0006A9591F753E0863A950751F74FBF8FE556
:101AB00094E00197F1F700C0000008950F931F9381
:101AC000CF93DF938B01EA019091EE03943059F5A7
:101AD0008093E9008FEF9091E80095FD06C095EDA9
:101AE0009A95F1F700008A95B1F78091E80085FF9B
:101AF0001AC00E949C0B811111C08091E80085FDE5
:101B000006C08091E8008E778093E800F2CFF8015C
:101B100081918F018093F100219779F78091E800FE
:101B20008E778093E800DF91CF911F910F910895F8
:101B3000CF93DF93D82FC92F48E050E0682F792F3B
:101B400081E00E945E0D88E0ED2FFC2FA4EFB2E053
:101B500001900D928A95E1F7DF91CF910895BC0134
:101B600040E250E082E00E945E0D0895BC0143E037
:101B700050E082E00E945E0D0895A0E0B0E0E3EC4A
:101B8000FDE00C94612A182F092FB62EA72E7A019A
:101B90008091E0029AE0C92ED12C8A3018F0CC2432
:101BA000C394D12CC1E0D0E06B2D7A2D812F902FE2
:101BB000F7010995811116C02196CC16DD0694F027
:101BC000CC9FC001CD9F900D900D112420E030E0FE
:101BD00045E34A95F1F700002F5F3F4F281739077B
:101BE000B9F7E2CFCDB7DEB7EAE00C947D2A909149
:101BF000ED0692FB222720F9281779F080FB92F955
:101C00009093ED066091EC067091ED0684E090E013
:101C10000E94842B82E00E94EE05089580914B0182
:101C2000813059F58091EC0687FF27C00E94060697
:101C30008093B70240E250E063E976E086EB92E001
:101C40000E941B2B892BC1F080E2E6EBF2E0A3E9B6
:101C5000B6E001900D928A95E1F7E091B306F0911C
:101C6000B406309749F086E08093B6020480F5818F
:101C7000E02D86EB92E0099508950E940606809378
:101C8000AE0248E050E065EB76E08EEA92E00E941A
:101C90001B2B892B89F388E0EEEAF2E0A5EBB6E096
:101CA00001900D928A95E1F7E091B306F091B406A8
:101CB000309711F30280F381E02D8EEA92E0DBCFC2
:101CC000CF93C82F8115D1F08CEF8C0F813AA0F5FE
:101CD00080914B01813021F48091EC0687FD10C08A
:101CE000E0EBF2E08191C81709F122E0E63BF20750
:101CF000C9F78C2F0E94810A0E940E0ECF91089581
:101D0000EC2FE695E695E695F0E0EA54FD4F8281EA
:101D100090E04C2F477021E030E002C0220F331FCB
:101D20004A95E2F782239323892B19F38C2F0E9483
:101D3000B50A0E940E0EDDCF80E28C0F883068F469
:101D4000C77081E090E001C0880FCA95EAF7C091A2
:101D5000E406C82BC093E406CFCF8BE58C0F83300D
:101D600038F42C2F2452330BC9010E94350AC6CFF8
:101D7000C85ACB3118F6EC2FF0E0EE0FFF1FEA58EF
:101D8000FD4F808191810E945B0AB8CF811539F1A6
:101D90009CEF980F913A28F40E94B50A0E940E0E0B
:101DA000089590E2980F983050F4877091E001C048
:101DB000990F8A95EAF7892F0E942D06EFCF9BE5B0
:101DC000980F933028F480E090E00E94350A08953F
:101DD000885A8B3120F480E090E00E945B0A0895DD
:101DE000811539F09091E406892B8093E4060E94D6
:101DF0000E0E0895811521F00E942D060E940E0EF0
:101E000008951092E40680914B018130C1F48091D5
:101E1000EC0687FF14C0E8EBF2E08EE1DF011D92D3
:101E20008A95E9F780E090E00E94350A80E090E032
:101E30000E945B0A1092EE060E940E0E0895E0EBDF
:101E4000F2E086E0EBCF0E94010F2FEF84E39CE0ED
:101E5000215080409040E1F700C0000088E19AE006
:101E60000FB6F894A895809360000FBE9093600021
:101E7000FFCFAAE2B0E0EFE3FFE00C94682A8CEE1B
:101E800092E0FC0101962091F100208322E0843F42
:101E90009207B9F78091ED02893009F45AC0C8F46D
:101EA000823009F4B6C0833009F485C0813091F1E5
:101EB0008091E80083FFEAC08091EC029091ED02EE
:101EC0009A3008F0E3C0E92FF0E0E151F44D0C94B2
:101ED000B02A8A3009F48CC08B3051F78091EC0223
:101EE000813231F78091F0029091F102892B01F754
:101EF0008091E800877F8093E8000E947D0B81E05D
:101F00009091EE02911101C080E080934B010E94FC
:101F1000010FCECF8091EC02813A51F68091E8001A
:101F2000877F8093E8008091F0029091F102892BE5
:101F300061F060E080E090E070E00E94240B80910E
:101F4000E8008B778093E800B3CF68E084EF92E0FD
:101F5000F3CF8091EC02813209F0AACF8091F00298
:101F60009091F102029708F0A3CF8091E800877F5B
:101F70008093E8008091E80082FF18C09091F30000
:101F80008091F200029731F48091F100813011F0DC
:101F9000863021F48091F10080934A018091E8001D
:101FA0008B778093E8000E947D0B82CF8091EE03B7
:101FB0008111E0CF7DCF8091EC02813A09F078CF9A
:101FC0008091F0029091F102892B09F071CF8091FC
:101FD000E800877F8093E8008091E80080FFFCCFD5
:101FE00080914B018093F1008091E8008E77D9CFEA
:101FF0008091EC02813209F05BCF8091E800877F0D
:102000008093E8000E947D0B8091EF02809349014C
:102010004FCF8091EC02813A09F04ACF8091E800DD
:10202000877F8093E8008091E80080FFFCCF80915B
:102030004901D8CF803889F0823841F58091F0028B
:102040008F70873018F58093E9008091EB0085FB55
:10205000882780F91092E90006C08091ED03880F6F
:102060009091E902892B9091E800977F9093E80086
:102070008093F1001092F1008091E8008E7723C0E8
:10208000811116C08091EE02813011F18091E8003B
:1020900083FF0AC08091E800877F8093E8008091E9
:1020A000EB0080628093EB00AA96E3E00C94842A14
:1020B000823061F78091EE02811589F01092E9007B
:1020C0008091E800877F8093E8000E947D0BDECF3F
:1020D00081E0933009F080E08093ED03EFCF8091B1
:1020E000F0028F702FEF280F263080F68093E900E2
:1020F0002091EB0020FFE2CF933031F48091EB0090
:1021000080628093EB00DACF9091EB009061909326
:10211000EB0021E030E0A90102C0440F551F8A9571
:10212000E2F74093EA001092EA008091EB008860A9
:10213000E8CF8111ABCF1091EE021F778091E300C1
:102140008078812B8093E3008091E800877F8093E3
:10215000E8000E947D0B8091E80080FFFCCF809119
:10216000E30080688093E30083E0111101C082E006
:102170008093EE038BCF8058823008F087CF209178
:10218000EE023091EF022C3D53E0350799F583E0E4
:102190008A838AE289834FB7F894DE01139620E0A0
:1021A0003EE051E2E32FF0E050935700849120FF8E
:1021B00003C082958F703F5F8F708A30C8F0895C52
:1021C00090E08D939D932F5F243161F74FBF8091F5
:1021D000E800877F8093E8006AE270E0CE01019614
:1021E0000E94240B8091E8008B778093E8004ECF0B
:1021F000805DE6CF832F99278330910529F160F424
:102200008130910509F476C0029709F03FCF8BE346
:1022100090E0E1EAF6E02DC02091F0023091F10269
:102220008132910509F45AC0829709F02FCF211508
:10223000310509F469C02130310509F027CF8DE659
:1022400090E0E0EFF5E015C0C90199272130B1F128
:102250008230910509F43AC0892B09F017CFEEE0DE
:10226000F7E0E4918E2F90E0EEE0F7E0009709F4BC
:102270000DCF2091E800277F2093E8002091F20203
:102280003091F3028217930708F49C0140E0211576
:10229000310509F03EC041113CC08091E80082FD4B
:1022A000A1CF8091EE03811509F49CCF853009F40C
:1022B00099CF8091E80083FFF0CF94CFECEFF6E068
:1022C000E4918E2F90E0ECEFF6E0D0CFEEEEF6E06A
:1022D000E4918E2F90E0EEEEF6E0C8CF21153105A7
:1022E00071F02130310509F0D1CE89E090E0ECECBD
:1022F000F6E0BFCF82E190E0ECEDF6E0BACF89E006
:1023000090E0E3EBF6E0B5CF84E490E0EDE5F6E0B5
:10231000B0CF8091EE03811509F464CF853009F4C4
:1023200061CF8091E80083FD5DCF8091E80082FD60
:10233000B4CF8091E80080FFAACF9091F300809104
:10234000F2002115310519F08830910550F041E077
:10235000089709F040E08091E8008E778093E800CC
:1023600096CF44914093F100319621503109019666
:10237000E8CF803809F08ACE8091E800877F80938B
:10238000E8008091EA028093F10076CE81117ECE42
:102390001091EE02123008F079CE8091E800877F2C
:1023A0008093E8001093EA020E947D0B1115A9F0BA
:1023B00084E08093EE0342E061EC81E00E948E0CA9
:1023C00042E261EC82E00E948E0C8091EE03843048
:1023D00051F482E080934C0159CE8091E30087FD57
:1023E000E7CF81E0E6CF81E0F5CFCF92DF92EF92A9
:1023F000FF921F93CF93DF9300D000D0CDB7DEB70D
:10240000C0906506D0906606E0906706F09068067A
:102410000E94E40A6C197D098E099F0911E0643657
:1024200071058105910578F10E94F00ADC01CB016C
:102430000296A11DB11D89839A83AB83BC838091D1
:102440003A0190913B018B58994F20913901422FCD
:1024500050E0253010F044E050E0BE016F5F7F4F48
:102460000E94282B83E090E00E94D129182F81152B
:1024700051F00E94E40A60936506709366068093AB
:10248000670690936806812F0F900F900F900F9022
:10249000DF91CF911F91FF90EF90DF90CF90089543
:1024A0004F925F926F927F928F929F92BF92CF9244
:1024B000DF92EF92FF920F931F93CF93DF93C82F7A
:1024C0007B01B42ED52FB9016801A8018B2D9D2F5A
:1024D0000E941B2B4C01F701408051806280738069
:1024E0000E94E40A64197509860997096436710522
:1024F0008105910510F4892829F10C2F0C2E000C70
:10250000110B88E0C802F0011124EF5DFE4F8181BC
:1025100092818B58994F2081422F50E0C216D104EE
:1025200008F4A6016B2D7D2F0E94282BC8010E9464
:10253000D129811541F00E94E40AF701608371837B
:102540008283938381E0DF91CF911F910F91FF9060
:10255000EF90DF90CF90BF909F908F907F906F9083
:102560005F904F9008950F931F93AC0104E010E02B
:102570002AE736E069E676E082E00E9450121F9179
:102580000F910895A9E0B0E0E8ECF2E10C94672A1D
:1025900088E0EBEDF6E0DE01119601900D928A9550
:1025A000E1F780916006898709E010E022E836E0D3
:1025B000AE014F5F5F4F61E676E084E00E9450120B
:1025C0002996E4E00C94832A8F929F92AF92BF9257
:1025D000EF92FF921F93CF93DF9300D000D00F9222
:1025E000CDB7DEB77B0180E090E00E94D129182FA3
:1025F000811509F464C080912401482F50E08115B1
:1026000011F041E050E060912501709126016B5876
:10261000794FCE0105960E94282B809071069090EC
:102620007206A0907306B09074060E94E40A6819BE
:1026300079098A099B09643671058105910538F489
:1026400086E796E00E94EC0B9D818917C1F181E03D
:1026500090E00E94D129811509F43FC080912C019E
:10266000482F50E0853010F044E050E060912D019B
:1026700070912E016B58794FCE0101960E94282B44
:1026800086E796E00E94EC0B9D81891326C00E948C
:10269000E40A6093710670937206809373069093B8
:1026A000740689819A81AB81BC8180936D06909379
:1026B0006E06A0936F06B093700681E00FC0809104
:1026C000760690917706A0917806B0917906898375
:1026D0009A83AB83BC831111E4CF80E040916D06F7
:1026E00050916E0660916F0670917006F7014083FD
:1026F0005183628373830F900F900F900F900F9010
:10270000DF91CF911F91FF90EF90BF90AF909F907E
:102710008F900895AB0124E630E0BC0188E70E9469
:10272000ED279C0181E0232B09F080E00895809142
:102730005E06811569F080915B06811549F062E0C3
:1027400070E08EEA90E00E948A13811110925B067D
:10275000089580915E068115F9F00E94E40ADC017B
:10276000CB01805A9541AF4FBF4F8093570690934E
:102770005806A0935906B0935A0680915B068111C2
:102780000BC062E070E08CEA90E00E948A13811531
:1027900019F081E080935B060895CF93DF93682F53
:1027A00081E06A3019F06D3031F480E00E944D1400
:1027B000DF91CF9108958091290490912A0426E019
:1027C000FC01A3EEB2E001900D922A95E1F7603E84
:1027D00008F458C026E0FC0111922A95E9F7C0914F
:1027E0002904D0912A0446E050E0BE0183EE92E035
:1027F0000E941B2B9E0123553440892B41F1C901B6
:1028000045E0969587954A95E1F741E050E0BA0199
:1028100002C0660F771F8A95E2F7CB0160915506DB
:1028200070915606862B972BB9016B5F7F4FE5E0C1
:1028300076956795EA95E1F702C0440F551F6A95B2
:10284000E2F7842B952B90935606809355062A5FCA
:102850003F4F40912B04642F70E0C9010E94452A2C
:10286000481B463010F4240F311D211572E0370744
:1028700010F020E030E02D5A3B4F30932A04209393
:10288000290496CFF6E06F9FB001112460557F4F69
:1028900046E050E00E94122BA2CFCF93382FE09158
:1028A0002904F0912A04E355F44020912B04622F6F
:1028B00070E0CF010E94452A281B822F311561F05C
:1028C00066E00E94902AC82FC15010F4CF9108955D
:1028D00080E20E94CD13F8CF8E0F9F2F911D81159E
:1028E00022E0920710F080E090E08D5A9B4F909389
:1028F0002A0480932904EACFCF93DF93EC01FE01F1
:102900008491811103C0DF91CF9108950E94CD136E
:102910002196F5CF0E947C1481E00E944D14089509
:102920001F921FB61F9211248F939F93AF93BF9353
:102930008091EC03811113C08091FC029091FD0203
:10294000A091FE02B091FF024196A11DB11D80939E
:10295000FC029093FD02A093FE02B093FF02BF9190
:10296000AF919F918F911F901FBE1F9018952FB709
:10297000F8948091FC029091FD02A091FE02B0912A
:10298000FF022FBF0895CF93DF93EC010E94B7148D
:102990008C1B9D0BDF91CF910895A3E0B0E0E3ED98
:1029A000F4E10C94592A582E80910A0185112DC00A
:1029B0009091DB0693702091090130E081E092173D
:1029C000130609F480E0809308018091E00690915D
:1029D0000701981739F08093070140E060E080E03C
:1029E0000E94C00922E0521609F46BC033E053166E
:1029F00070F4511016C080910801811581F040E0FB
:102A000060E080E00E94C0090AC081E0DCCF43E0C2
:102A1000541609F49EC054E0551609F40AC180E02A
:102A200022C0809106010E94D9098983192F6091E3
:102A3000DC067091DD068091DE060E94F008062F0C
:102A4000F72EE82E9981892F90E09B838A83BA81A3
:102A50001B1709F0F8F480918C06811509F476C0F3
:102A600081E01B31E0F6909106019F5F9093060193
:102A700081110CC082E080934E0180910801811188
:102A800005C0511003C083E080934E012396E2E11C
:102A90000C94752AEA81FB81E050FE4F8081909171
:102AA00007018923811539F02E2D4F2D602F8A8142
:102AB0009B810E94B309AA81BB811196BB83AA8323
:102AC000C6CF809106010E94D909192F3091DF06E7
:102AD0003695369521E0320F08F43FEF6091DE0322
:102AE0007091DF0340E050E0639F412D739F400DE4
:102AF000511D1124042FE82FF0E0FB83EA833A8173
:102B0000311708F0A8CFEA81FB81E050FE4F8081A9
:102B1000909107018923811591F06091DC067091F5
:102B2000DD068091DE06202F4A810E948C090E94DA
:102B3000F008472F282F8A819B810E94B3092A81A0
:102B40003B812F5F3F4F3B832A83D9CF81E01633F0
:102B500089CF409106014983411124C00091AA0305
:102B60001091AB030E94B7144091DF0620E431E0DE
:102B7000241B3109801B910B2817390798F40E94F8
:102B8000770956E3859FC0011124892F880F880B90
:102B900090930401809305010E94B7149093AB03B6
:102BA0008093AA0389810E94D909092FA091040169
:102BB000B0910501BB83AA83A817B10560F1A917DD
:102BC000B10548F5FD01E050FE4F8081909107016D
:102BD0008923811501F10E94770981FD23C00E949C
:102BE0007709182F0E947709B0E88B9FC001112444
:102BF0007FE7790F8091DE06612F0E94F008472F52
:102C0000282F8A819B810E94B30987E390E09093EB
:102C100005018093040180918C06811539F081E0D3
:102C20000B3120CF80E070E010E0E6CF81E006338A
:102C300019CF4090DE06E42CF12CF701EE0FFF1FB8
:102C4000EE0DFF1DF695E795F695E795FB83EA8374
:102C5000FA81F9838FEF90E0B7010E949C2A362E0B
:102C600080910801811571F040E060E080E00E94F1
:102C7000C009EEEAF3E080E3DF011D928A95E9F7EF
:102C80001092AD038091AC038F5F8093AC038EEA0A
:102C9000C82E83E0D82EA12CB12C3701EA81FB810C
:102CA0006E1A7F0A45018601212C8091AD0382298D
:102CB00081114BC00E94022B853595400CF045C018
:102CC000D6014C92F401EC59FE4FE081EF3FD9F070
:102CD000D8012C91F0E0B981B21708F045C030E07E
:102CE0004A815B81241B350B249FC001259F900DD9
:102CF000349F900D1124B3010E94452A262F442DA4
:102D0000CF010E94B30923940A5F1F4F56E0850E3E
:102D1000911C88E02812C9CF9FEFA91AB90AAFEF1A
:102D2000CA1ADA0AB6E0AB16B10409F0BBCF80913B
:102D3000AC03381202C01092AC038091AD038F5FD8
:102D40008D31F8F48093AD036ACEF801808181154E
:102D500009F4B8CF841508F0B5CF9091AC033912BF
:102D6000B1CF81508083AECF2E9DC0012F9D900D9D
:102D700011246A817B810E94452A462F20E060E071
:102D8000BFCF1092AD0322ED33E087E09FEF940DAB
:102D9000B901EEEAF3E0873021F442A5441201C004
:102DA00092A7DB014D91BD01441540F08D0101500A
:102DB0001109D8019C93DB0115964C923196B3E032
:102DC000E43BFB0741F78150265031098111E0CFE8
:102DD00026CE8F929F92AF92BF92CF92DF92EF92C8
:102DE000FF928090A6039090A703A090A803B090B4
:102DF000A90380918B06811509F448C00E94E40A5A
:102E00006B017C01C818D908EA08FB080E94F00A87
:102E1000282F6093A6037093A7038093A803909331
:102E2000A903A091F703E7EFF3E08A2F30E08824AD
:102E30008A94982CA12CB12C8C189D08AE08BF0840
:102E4000A31327C08093F70380916006811131C0DE
:102E50003091DB06832F8370811519F0832F8695BF
:102E6000869530914E013230A1F128F531112EC0F6
:102E7000109206016093DE037093DF032093E0035A
:102E80009093E10381E080934E0117C00E94F00A05
:102E9000B7CF418D528D84169506A104B10420F45C
:102EA00081503F5F3296CCCF4C0D5D1D528F418FCC
:102EB000F8CF80E0D6CF3330B9F0FF90EF90DF90BD
:102EC000CF90BF90AF909F908F9008950E94CD14A7
:102ED000F4CF80930A018091DB068370809309010F
:102EE0000E94380D83E0CFCF8091E306811551F029
:102EF00048E050E067E170E08BED96E00E94562BD1
:102F00001092E306C090DE03D090DF03E090E00370
:102F1000F090E10380918B06811571F00E94E40A24
:102F20006C197D098E099F09603171058105910534
:102F300020F210924E01C1CF0E94F00AF1CFCF9340
:102F4000C82F811591F08091600681110EC00E94FA
:102F5000CD1410920A018091DB06837080930901E1
:102F60000E94380D83E080934E01C0936006CF919C
:102F70000895EF92FF920F931F93CF93DF93C62F85
:102F8000D42F122F8115A9F06093D9060E94B7148F
:102F90009093E2028093E102C77081E001C0880F44
:102FA000CA95EAF70E94F00ECDB7DEB7E6E00C94C2
:102FB000812A8091D906681335C0E090E102F09033
:102FC000E2020E94B7148E199F09883C910550F5C2
:102FD00000E20D0FCD17A9F0C770FF24F3948F2DD9
:102FE00001C0880FCA95EAF70E94FA0E083048F42B
:102FF0008D2F877001C0FF0C8A95EAF78F2D0E94F4
:10300000F00E812F0E94600E812F0E94C60E0830A4
:1030100058F6D77081E001C0880FDA95EAF70E9470
:10302000FA0EC2CFC77081E001C0880FCA95EAF7D7
:10303000F6CFA0E0B0E0EFE1F8E10C94632A7C0168
:10304000FC018481811509F475C061E0C7010E940B
:103050007A08EC01F7018581811509F488C4918112
:103060009093D80690819093D70690E290934D016B
:10307000D093D606C093D5069E013052211530421A
:1030800020F5F7019681903128F0FE01FF27ED33FE
:10309000F10578F11092D9069E013057233231059F
:1030A00008F070C484E090E00E94502B9093ED06ED
:1030B0008093EC06FE01E150F047E232F10508F0A2
:1030C00063C0E750F44D0C94B02A9E013054211592
:1030D0003041B8F29E013A9521153F41B0F29E0170
:1030E000205A324520323105A8F2CD33D10530F4D3
:1030F000FE01EB5DF54FE491E0934D01FE01E851D7
:10310000FC47E730F10530F639C426E241EE61EEC6
:103110000E94B9178091EB068770811559F0F7016D
:103120008581811539F08091ED0682FF03C082E030
:103130000E94EE05CDB7DEB7E8E00C947F2A27E2C7
:1031400045EE65EEE5CF26E241EE60EEE1CF27E207
:1031500045EE64EEDDCF26E241EE62EED9CF27E206
:1031600045EE66EED5CF28E241E0EBCFC6312CE745
:10317000D20709F0F2C08091DA06811509F4BEC0C9
:1031800085E30E94B50A12C48091EC0681608093A9
:10319000EC066091EC067091ED0684E090E00E94F0
:1031A000842B0E94010FB6CF8091ED06886080933A
:1031B000ED06EFCF8091EC068260E9CF8091EC06BE
:1031C0008460E5CF8091EC068860E1CF8091ED06C8
:1031D0008160EDCF8091ED068260E9CF8091EC06B1
:1031E0008061D5CF8091EC068062D1CF8091EC06D2
:1031F0008064CDCF0E94010F8091EC068068C7CF1C
:103200008091EC068C60C3CF8091ED068360CFCFB8
:103210008091EC068E7FBBCF8091ED06877FC7CF74
:103220008091EC068D7FB3CF8091EC068B7FAFCF82
:103230008091EC06877FABCF8091ED068E7FB7CF74
:103240008091ED068D7FB3CF8091EC068F7E9FCF6E
:103250008091EC068F7D9BCF8091EC068F7B97CF82
:103260000E94010F8091EC068F7791CF8091EC0640
:10327000837F8DCF8091ED068C7F99CF8091EC0676
:10328000992782FF939590FB82F990FB83F97FCF7A
:103290008091ED06982F909590FB80F990FB81F935
:1032A00086CF9091EC06892F8F7B96FF80646FCF3D
:1032B0000E94010F9091EC06892F97FB87F98058A7
:1032C00066CF61E08EE090E00E94662B62CF60E006
:1032D000F9CF9091EC06892F8F7E94FF806157CFB4
:1032E0009091EC06892F8E7F90FF816050CF909156
:1032F000ED06892F877F93FF886059CF89E241CF00
:103300009272FE01E052F847EB30F10508F06EC012
:10331000E55EF34D0C94B02A0E94ED09FBCE9115A9
:1033200009F449C00E94280CF5CE911509F449C052
:103330000E94500CEFCE911509F449C00E94670C11
:10334000E9CE911509F449C00E94810CE3CE911594
:1033500009F449C00E94090ADDCE9091E4069272F8
:10336000FE01E054F847ED30F10508F03FC0EA5D9A
:10337000F34D0C94B02A8091DB068370811102C05A
:1033800010924E018091DB068C7F81608093DB067A
:103390008091E30681608093E306BCCE8091DB06DA
:1033A0008370811110924E018091DB068C7FEECFED
:1033B000911509F4B7CF0E941D0CACCE911509F4FC
:1033C000B7CF0E94460CA6CE911509F4B7CF0E9444
:1033D0005A0CA0CE911509F4B7CF0E94740C9ACE66
:1033E000911509F4B7CF0E94FB0994CE9E01205E8F
:1033F000324520323105A8F481112AC0CF7181E015
:1034000090E0FC0102C0EE0FFF1FCA95E2F7EF014A
:103410006E2F83E090E00E94662BCE010E94500543
:1034200079CE8115A9F0CA35FCE7DF0709F49AC007
:1034300008F072C0C1303CE7D30709F491C0C33033
:103440008CE7D80709F486C0C115DC4709F475C0BC
:10345000F701858100811181811509F487C0C801B8
:103460000E944608C82F682FC8010E947C05B80139
:103470008C2F0E9435060E944307D82FC92FF701D1
:10348000C580068102950F708091EB0687708115CB
:1034900001F1DC2CC114F1F0892F807F803461F0C0
:1034A00080E28D0F8830A8F0892F807E803221F451
:1034B000D23078F0011569F08091ED0682FF09C0E5
:1034C00082E00E94EE058091EB068770DD24D394A4
:1034D0008111D12C8C2F82958F70883009F435C1E1
:1034E00008F065C0843008F046C01C2F1F70823081
:1034F00008F46EC0C07FC03211F01295107FD11554
:1035000009F49CC0D13009F4E5C0C11409F4EFC03E
:10351000011509F4B1C071C0CB35ECE7DE0721F12C
:103520008091ED06002482FF0394802DCC35DC478A
:1035300009F08ECF0E94F70D8BCF0E94010F2FEF65
:1035400034E38CE0215030408040E1F700C00000BF
:103550000E94120B6FEF7FEF80E090E00E94842BBF
:103560000E94230F81E0E6CF80E0E4CFC8010E94F3
:10357000B105C82F7CCF843009F4CAC0D11409F436
:103580001BC18091EB0680FD17C1F701158286955E
:10359000869586950E945A05C7010E941918809148
:1035A000EB068695869586950E946A0505C1893049
:1035B00009F45BC18A5F8F70823000F7D23F09F057
:1035C00065C18C2F8F71C1105EC10E945A05F2C077
:1035D000C03110F01295107FC114B9F0111569F0C7
:1035E00080E28D0F883010F0D11109C08091E4067F
:1035F000812B8093E4060E940E0E8D2F2FC08091A8
:10360000EE06812B8093EE06F6CF8D2F0E94C60E1C
:10361000111509F4B3CF80E28D0F883010F0D1116D
:1036200004C0812F0E942D0606C010958091EE06E1
:1036300081238093EE060E940E0EA0CF8091ED06AE
:1036400082FD16C0C11469F0111539F08091E406AD
:10365000812B8093E4060E940E0E80E00E94600E93
:103660008DCF80E00E94C60E111509F487CFD9CF07
:10367000C114A1F0011104C0812F0E94F00E7ECF71
:10368000013009F07BCF8091E506912F982319171F
:1036900009F474CF812B8093E50670CF01116ECFB2
:1036A000812F0E94FA0E9091E506812F89238115C2
:1036B00029F0812F809589238093E5068091E60685
:1036C000912F9823911509F459CF10951823109331
:1036D000E60654CFC11421F0063008F04FCFCCCF0E
:1036E000053008F04BCF812F0E94FA0E47CF01150D
:1036F000D1F3D93349F4FFEF27EE33E0F150204006
:103700003040E1F700C000008D2F0E94C60E36CF7A
:103710008C2F869586958370811569F0813009F02C
:103720002DCF8D2F9C2F9370C11002C080E090E0B0
:103730000E945B0A23CF8D2F9C2F9370C11002C073
:1037400080E090E00E94350A19CF8C2F83708111A0
:1037500046C0C1102FC04D2F429546954770440F6B
:10376000440F2D2F2F7030E0042E02C0220F331F84
:103770000A94E2F780E090E0D4FF09C08FE090E087
:1037800002C0880F991F4A95E2F780959095C695DB
:10379000C695C370C230D1F0C330A9F04091E7069E
:1037A0005091E806C13069F0822B932B8423952336
:1037B0000E9450050E94240A60E0C7010E947A0816
:1037C000B9CC242B352B822B932BF2CF822B932B2E
:1037D0002091E7063091E80682279327E9CFC114AC
:1037E00091F1C0FFE7CF4D2F429546954770440FAA
:1037F000440F2D2F2F7030E0042E02C0220F331FF4
:103800000A94E2F780E090E0D4FF09C08FE090E0F6
:1038100002C0880F991F4A95E2F780959095C6954A
:10382000C695C370C230C1F0C33099F04091E9062B
:103830005091EA06C13059F0822B932B84239523B3
:103840000E945505B7CF823008F4B4CFCCCF242BDB
:10385000352B822B932BF4CF822B932B2091E906CF
:103860003091EA0682279327EBCFCF70C11439F04D
:103870008C2F0E945A058D2F0E94F00E9BCF8D2F0A
:103880000E94FA0E8C2F0E946A0594CF70F4D03FEC
:10389000C9F0D13F91F0C11409F455C0011509F4E4
:1038A0004FC08D2F0E94600E85CFD33F19F1D43FBA
:1038B00091F79091ED0692FD2BC08C2F8F71C11462
:1038C00011F383CEC114A1F0053008F073CFCF718E
:1038D00081E090E0FC0102C0EE0FFF1FCA95E2F705
:1038E000EF018091E9069091EA068E279D27A8CFE7
:1038F0000630EBCF80E090E0C11409F4A1CFCF7186
:1039000081E090E002C0880F991FCA95E2F798CF36
:10391000C11461F08C2F8F7192FF57CE982F990FA1
:10392000990F990F93609093EB064FCE81E00E9420
:10393000EE05023008F43ECF82E00E94EE053ACF59
:103940008C2F8F7142CE011579F0D93349F4FFEFF6
:1039500027EE33E0F15020403040E1F700C0000096
:103960008D2F0E94C60E26CF8C2F8F718CCFFE011B
:10397000E851FC47E730F10508F0F8CBED5CF34D7A
:103980000C94B02A9091E406C631FCE7DF0709F0F9
:10399000B7CC9A7A81E0911101C080E08093DA0679
:1039A00085E3911101C089E20E94810A0E940E0EF6
:1039B000B1CB80912F07803178F480912E0781154B
:1039C00059F0E091F0062091EF0630912A074091DE
:1039D000290757E02E1301C008956E2F70E05E9FF7
:1039E000F0011124DF01AF50B94F14968C91149758
:1039F000811561F111968C911197831327C08C91D9
:103A0000841324C015968C91159781111FC01296AE
:103A10008D919C91A0912B07B0912C078A1B9B0B39
:103A2000883C910598F480912F078F708061809376
:103A30002F07E950F94F80818F708061808389E280
:103A400097E00E9419180E94E4050895FB01319641
:103A5000E770C0CFADE0B0E0E0E3FDE10C945E2A9A
:103A60008C0186E0F801DE01189601900D928A958E
:103A7000E1F7F801F580C48089E2882E87E0982E6E
:103A800070902D07711020C0C114D9F0F11409F401
:103A90001CC1C8010E94A908811509F416C187E05C
:103AA000F801D40101900D928A95E1F7F1E0CF126F
:103AB00006C08091290790912A070E949A080E94C7
:103AC000D91CFF24F39454C0E080A280B380D0902E
:103AD0002E0780912B0790912C079501281B390BFD
:103AE000D11409F4BAC0283C310508F090C0C114C3
:103AF00041F390912A07C18080912F07803108F00F
:103B000058C0C91214C0909129079E1110C0F1101D
:103B10004AC08F70806180932F0789E297E00E94EE
:103B2000191880912F07F8018683F12C21C0F1101C
:103B30003AC040E06C2D8E2D0E94190D40E06C2D96
:103B40008E2D0E94190DF82E8111EFCF8885998551
:103B50000E949A08292F22952F70903470F49F703C
:103B60002230A0F09115B1F0F8019681903190F4D7
:103B70008F2D2D96EDE00C947A2A2A5F2F7022303B
:103B800068F0C8010E941918FD2CF2CF911511F0B0
:103B9000811571F3805E883058F3F3CF803F40F396
:103BA000815F8330F9CF80912F07816080932F0749
:103BB000BCCFC91207C0909129079E1103C0F11410
:103BC00009F46CC0C8010E94A908811509F47DC0E0
:103BD000F11409F47AC080912F07803278F0209197
:103BE000290730912A073A832983BC82AB827D82E0
:103BF0001E828F83CE0101960E94191887E0F8017A
:103C0000A9E2B7E001900D928A95E1F758CF809133
:103C10002F07803150F489E297E00E94191887E05D
:103C2000F40111928A95E9F780CFC11409F449CFC4
:103C300020912A0791812913C5CF909129079E11C0
:103C4000C1CFF110BFCF8683C8010E94191887E049
:103C5000F40111928A95E9F734CF283C3105F8F642
:103C6000C11409F42ECFF11481F190912A078181BA
:103C7000981321C0809129078E111DC080912F07B4
:103C800080FD10C0803170F08683807F803F39F0E6
:103C90008681982F907F905F8F70892B8683C801D3
:103CA0000E94191887E0F801A9E2B7E001900D928F
:103CB0008A95E1F706CFC8010E94A90881119ECF1D
:103CC00080912F07816080932F07C8010E941918E7
:103CD000F8CEABE1B0E0EFE6FEE10C94672A4E8B44
:103CE0005F8B688F798F8A8F192F9B8F911110921C
:103CF000EE061D8A86E0FE017696DE011F96019093
:103D00000D928A95E1F70A8D011561F00B8B1C8BE2
:103D100061E0CE010F960E947A0861E0CE010F9615
:103D20000E947A080B8B1C8B87E0FE013F96DE0118
:103D3000189601900D928A95E1F7CE0108960E949F
:103D40002A1D811128C02091EF063091F00687E0EE
:103D5000FE013896DE01119601900D928A95E1F7E9
:103D60008C858115C1F0822F90E00196877099278C
:103D700038171906D9F097E0929FD0011124AF505F
:103D8000B94FFE01319601900D929A95E1F780931B
:103D9000EF060E94E40517E08091F0069091EF068F
:103DA000891312C06B96E4E00C94832A0E94010FE1
:103DB0001092EF061092F00687E0E9E2F7E0DF01EB
:103DC0001D928A95E9F7E7CF189FC00111248F5003
:103DD000994F0E942A1D811529F38091F00690E0E9
:103DE0000196877099278093F006D6CFA6E0B0E0C1
:103DF000ECEFFEE10C94672A0E94B7148C018091CD
:103E00009106909192068017910779F019821A8293
:103E10000E94B714BC0149815A8180E090E00E9461
:103E2000691E10939206009391062696E4E00C9486
:103E3000832AACE0B0E0EFE1FFE10C945A2AFE01E6
:103E4000319688E0DF011D928A95E9F78AE5E82E30
:103E500081E0F82E8F019EE5692E91E0792E2F01E9
:103E6000AA24A394B12C34E6832E31E0932EF701DB
:103E700081917F018F3F09F43EC0F894E82FE295CD
:103E8000EF70F0E021A18F70A50102C0440F551F13
:103E90008A95E2F7CA01922F982B91A392A180955F
:103EA000892382A3789400C0EEE5F1E031E0312C63
:103EB00021912F3F79F0A22FA295AF70A05EB0E0C4
:103EC0008C9190E02F7002C0959587952A95E2F726
:103ED00080FF88C080E0382A330F8E169F0641F796
:103EE000F70182918F3F11F00E94D70850EA5A954E
:103EF000F1F7D8013C920F5F1F4F6E147F0409F059
:103F0000B6CF48E050E0B20182EE93E00E941B2B56
:103F10006C01892B41F088E0F201A2EEB3E0019040
:103F20000D928A95E1F70091EB0310E001511C4FCF
:103F3000C114D10409F458C081E08093DF020E94CB
:103F4000B7149093DE028093DD0280918B06811579
:103F500009F4A5C07E01B9E0EB0EF11C84E0F70185
:103F600011928A95E9F78091E0028A3008F060C0EA
:103F700044EE52E1B701C8010E94BD0D811509F45C
:103F80007CC043EB52E1B701C8010E94BD0D811511
:103F900009F473C045EF51E1B701C8010E94BD0D9E
:103FA000811509F46AC042EC52E1B701C8010E94D0
:103FB000BD0D811509F461C01092E0028091EA0301
:103FC00090E044E050E0B70181519C4F0E941B2BD0
:103FD00021E02093DC02892B09F041C02C96E1E11D
:103FE0000C94762A832F77CF8091DF02811509F414
:103FF000ACCFE090DD02F090DE020E94B7148E1983
:104000009F09059708F4A1CF44E050E062EE73E009
:10401000C8010E941B2B892B41F084E0E2EEF3E003
:10402000D80101900D928A95E1F71092DF028DCFB1
:10403000C090DA02D090DB020E94B7148C199D095F
:10404000843F914008F094CF8091DC02811531F2D9
:1040500084E0D7011D928A95E9F71092DC02E09185
:10406000EA03F0E0E151FC4F89859A85AB85BC8578
:1040700080839183A283B383B1CF8091E0028F3F8D
:1040800039F40E94B7149093DB028093DA02DCCFFC
:104090008F5F8093E0028A3008F490CFF2CFE090F7
:1040A000EA03F12CF701E151FC4F7F01F801808117
:1040B0009181A281B3818093760690937706A09335
:1040C0007806B093790686E796E00E94EC0B809321
:1040D000750680917A0690917B06A0917C06B0913E
:1040E0007D06F70180839183A283B383C0907E060F
:1040F000D0907F06E0908006F09081068091D602F5
:104100009091D702A091D802B091D902C816D906D1
:10411000EA06FB06B1F0C092D602D092D702E09236
:10412000D802F092D9020E94E40AC61AD70AE80A15
:10413000F90AC0928D06D0928E06E0928F06F09218
:10414000900688E0E2E8F6E0ABEDB6E001900D9273
:104150008A95E1F780918A060E949F173FCFCDB7DD
:10416000DEB72C970FB6F894DEBF0FBECDBF85B774
:10417000806885BF85B7806885BF84B7877F84BF27
:104180000FB6F894A89580916000886180936000D4
:10419000109260000FBE80E890E00FB6F894809314
:1041A0006100909361000FBE81E080934C0185ED2A
:1041B00098E09093AD028093AC020E94CD0B0E94D8
:1041C000BE0C8091E20084608093E200789480913C
:1041D000EE03811599F08091E9001091EC008F7049
:1041E000179511271795182B1092E9008091E80078
:1041F00083FD0E94390F1F701093E90082E084BD97
:1042000093E095BD9AEF97BD80936E0010928D0656
:1042100010928E0610928F06109290068091D80010
:1042200080618093D8002AE12A95F1F700C080913F
:10423000D900182F117080FD04C00E94CD0B109280
:10424000EE0310938B0681E0812780938C06809388
:104250000D0111110E94E32880910D0180910D0143
:1042600091E08927880F880F8093EB0394E0981BD7
:104270009093EA0384E90E94D70886E60E94D70853
:1042800087E90E94D70886EC0E94D7080EE511E066
:1042900084E6E82E81E0F82ED8018D918D018F3FC4
:1042A00011F00E94D708E016F106B1F788E0EFEEB2
:1042B000F3E0DF01282F1D922A95E9F7E2EEF3E003
:1042C000DF011D928A95E9F780E090E00E94502B73
:1042D000853E9E4F09F461C065EE7EEF80E090E080
:1042E0000E94842B60E082E090E00E94662B81E0D7
:1042F00090E09093E8068093E70661E083E090E029
:104300000E94662B60E074E184E090E00E94842BC0
:1043100060E086E090E00E94662B60E087E090E03D
:104320000E94662B40E050E0BA0188E090E00E94D5
:10433000782B60E083E290E00E94662B60E08CE0E6
:1043400090E00E94662B60E08DE090E00E94662B7A
:1043500019821A821B821C821D821E821F8218866D
:1043600048E050E067E170E0CE0101960E94562BD4
:1043700040E050E0BA018FE190E00E94782B40E0ED
:1043800050E0BA018FE090E00E94782B40E050E0CE
:10439000BA0183E190E00E94782B82E090E00E94D5
:1043A000482B8093200484E090E00E94502B90934F
:1043B000ED068093EC060E94191FEFEFF6E721E06F
:1043C000E150F0402040E1F700C000000E94191FBA
:1043D000E0918C0611E0E127EE0FEE0FF0E0E151E5
:1043E000FC4F808181FF08C06FEF7FEF80E090E09D
:1043F0000E94842B0E94120B83E090E00E94482BC5
:1044000090E00E9450050E94170A1092F70340E1C5
:1044100050E06FEF70E080E194E00E94312B109348
:10442000E30648E050E067E170E08BED96E00E9423
:10443000382B1092E3068091DB068430F8F485E097
:104440008093DB0680914F0190915001A091510122
:104450008093DC069093DD06A093DE068FE78093C1
:10446000DF068FEF8093E00648E050E067E170E000
:104470008BED96E00E94562B1092E30680918B06FE
:1044800091E08927880F8093530680E880932B045E
:104490000E9468276BE070E089E298E00E948A132E
:1044A000811509F43FC08091530665E070E081FDFD
:1044B00015C184E298E00E948A13811599F16DE09C
:1044C00070E082E198E00E948A13811559F10E9400
:1044D000E40ADC01CB01805A9541AF4FBF4F809376
:1044E000570690935806A0935906B0935A06E3E5F1
:1044F000F4E080E092E0DF019C011D922150304009
:10450000E1F7F0932A04E09329048FEF9FEF909353
:1045100056068093550681E080935E0680935B0685
:104520001092540680918B06811102C00E94E628E9
:104530008EE091E09093B4068093B3068091EE03F1
:1045400010E400E1B2E1FB2E853009F403C10E94C2
:10455000191FA1E2B4E0BA87A987EFEEF3E0FC8768
:10456000EB87DF01E1E2F4E091918D9124E0E93203
:10457000F20709F4FCC09817B9F320908B06A4E663
:10458000AA2EA1E0BA2E00E0AB85BC857D90BC8749
:10459000AB87E985FA853190FA87E987371409F402
:1045A00091C037244501612C55245394832D8521D6
:1045B000811509F47CC0172D15212114A1F0698201
:1045C0000A830E94B7149C838B83F1E0FD8391E002
:1045D000111101C090E09E8349815A816B817C81D9
:1045E0008D810E94691E111539F0D4018C9110E063
:1045F0008F3F11F0482E11E0E12EF12C8091F7034E
:10460000810F9927991F09976CF178E0C72ED12C5B
:10461000CE18DF08B70168507C4FA60188EF93E001
:104620000E94282BB70160507C4FA60180E094E0E7
:104630000E94282BA601440F551FB701660F771F54
:10464000605F7B4F80E194E00E94282BB701685F98
:104650007B4FA60188E094E00E94282B88E0811B14
:104660008093F703111519F14091F703842D90E021
:10467000242F30E0F901E950FC4FDC01AA0FBB1FE9
:10468000AC56BE4F5C915183880F991FDC01AC5929
:10469000BE4FD1968C918187418AF901EE0FFF1FA1
:1046A000E950FC4F128E118E4F5F4093F7036394D5
:1046B000550CBFEF8B1A9B0AE6E06E1277CFE985A7
:1046C000FA8572920F5FF6E0AF0EB11C083009F068
:1046D0005BCF0E94F00ADD24D3944EC08FE198E0B6
:1046E000EACE8091EE03843051F10E94E91681E018
:1046F0000E949F170E9497131092EC0388E190E0AC
:104700000FB6F894A895809360000FBE10936000D8
:1047100083B7817F846083BF83B7816083BF7894D0
:10472000889583B78E7F83BF0FB6F894A895809144
:104730006000886180936000109260000FBE0E944C
:10474000191FEFEEF3E081918111FBC193E0E73F88
:10475000F907C9F78091EE03853009F4C2CF0E94B2
:10476000010F0E94240A80E00E949F17F0CE981348
:1047700004CF0E94F61ED12C0E94E91680915E069D
:10478000811509F4AFC000915C0610915D060E948E
:10479000B714801B910BC29708F484C00E94B71411
:1047A00090935D0680935C0683E594E090932A04E1
:1047B0008093290480918B06811509F4E5C08DE969
:1047C00098E00E947C144091E9063091EA06832F1C
:1047D00090E028E0311103C020E0842F932FAC013A
:1047E00074E0569547957A95E1F74115510511F01A
:1047F0002C5FCA01AC0156954795569547954115D2
:10480000510511F02E5FCA0196958795820F82306F
:1048100009F47FC008F075C0811178C085E998E07F
:104820000E948A148091D806805D0E94CD138AE789
:1048300098E00E947C148091D706805D0E94CD1381
:1048400086E798E00E947C148090D5069090D6066A
:1048500080911801909119018816990609F05FC09E
:1048600080913204803209F05AC0ECE2F4E08F010A
:1048700081918032E1F3F80101900020E9F79F0176
:104880002150310979010E151F0508F477C084E71E
:1048900098E00E947C1480914D010E94CD1381E02C
:1048A0000E944D148091550690915606892B09F06F
:1048B00070C080915B068115A9F00E94E40A009106
:1048C0005706109158062091590630915A06601BE0
:1048D000710B820B930B6F3F7F4F8F4F9F4710F4ED
:1048E0000E949713D1100E94A9130E94240A90914C
:1048F0005F06891709F422CE80935F060E94E40ABE
:104900001DCE833049F08CE798E08ACF8FE898E09D
:1049100087CF89E898E084CF82E898E081CF9092B1
:1049200019018092180180E280933204A12CB12CED
:104930001092310431E3E32E34E0F32E00E010E076
:10494000C501B4012AE030E040E050E00E94BC2BF9
:10495000605D603341F40115110529F089288A282A
:104960008B2809F460E2D7016E937D0149015A0159
:104970000F5F1F4F0530110519F777CFD8018D91C3
:104980008D010E94CD137FCF84E398E00E947C14B8
:1049900089CF80915E06811509F48BCF80915406F2
:1049A000811187CF0E94A913209155063091560698
:1049B0002115310509F47DCF10E041E050E0812F51
:1049C00090E07A01012E02C0EE0CFF1C0A94E2F77F
:1049D000B9016E217F21672B11F41F5FF0CF209169
:1049E000530620FF9BC0912F990F990F990F37E025
:1049F000390F80E023E090931C0180931F013093D6
:104A00001D012093200124E630E047E050E06AE1F8
:104A100071E088E70E949E27892B09F04ACFB0E217
:104A20001B9FA00111248091530680FF83C0E3E304
:104A3000F4E080E2DF011D928A95E9F7EAE3F2E013
:104A4000FA87E98706E312E08EE3282E82E0382E0B
:104A500097E0592EA985BA856D91BA87A987F80183
:104A600081918F01840F952F911D9C012D5A3B4FF1
:104A70003901E62FF0E0ED5CFB4F20E030E0852CC3
:104A8000821ACC24C394022E01C0CC0C0A94EAF7FB
:104A9000530190E0D5018D915D018C21682D691B3A
:104AA000677070E0B82F062E01C0BB0F0A94EAF7BA
:104AB0007195619571096770772701C086956A9530
:104AC000EAF78B2B6081862B80839F5F983011F7EC
:104AD0002F5F3F4F31962830310589F6E985FA85F9
:104AE0002E163F0609F0B6CF04E610E020E230E0D3
:104AF00043E354E060E488E70E943828892B09F0FA
:104B0000D8CEE094F09480915506909156068E216F
:104B10009F219093560680935506CBCE9695879508
:104B200096958795282F912F9295990F90763FE132
:104B3000390F61CF4D5A5B4F04E610E020E230E0C0
:104B4000D9CF8091ED03811509F404CE09BDF9BCDC
:104B500009B400FEFDCF8091D8008F7D8093D800EE
:104B60008091E00082608093E0008091E00081FD10
:104B7000FCCF0E94010FEECD78941F921FB61F92BA
:104B800011248F939F93AF93BF938091FC029091D8
:104B9000FD02A091FE02B091FF020196A11DB11D80
:104BA0008093FC029093FD02A093FE02B093FF025B
:104BB000BF91AF919F918F911F901FBE1F9018952D
:104BC0001F920F920FB60F9211242F933F934F9382
:104BD0005F936F937F938F939F93AF93BF93EF9365
:104BE000FF938091E10082FF09C08091E20082FF83
:104BF00005C08091E1008B7F8093E1008091DA0015
:104C000080FF24C08091D80080FF20C08091DA000E
:104C10008E7F8093DA008091D90080FFA9C080E167
:104C200089BD82E189BD09B400FEFDCF81E080939A
:104C3000EE038091EB02811109C00E94CD0B0E940E
:104C4000BE0C8091E20084608093E2008091E100DC
:104C500080FF1AC08091E20080FF16C08091E200C0
:104C60008E7F8093E2008091E20080618093E20079
:104C70008091D80080628093D80019BC85E0809331
:104C8000EE0383E080934C018091E10084FF2FC00C
:104C90008091E20084FF2BC080E189BD82E189BD63
:104CA00009B400FEFDCF8091D8008F7D8093D8009D
:104CB0008091E1008F7E8093E1008091E2008F7E01
:104CC0008093E2008091E20081608093E200809115
:104CD000EA02811509F452C084E08093EE038091CA
:104CE000EE03843009F052C082E080934C01809141
:104CF000E10083FF2CC08091E20083FF28C08091F7
:104D0000E100877F8093E10082E08093EE031092C0
:104D1000EA028091E1008E7F8093E1008091E200C1
:104D20008E7F8093E2008091E20080618093E200B8
:104D300042E060E080E00E948E0C8091F00088608C
:104D40008093F00081E080934C0180934B01FF91B0
:104D5000EF91BF91AF919F918F917F916F915F91F3
:104D60004F913F912F910F900FBE0F901F9018956C
:104D700019BC1092EE031092EB0268CF8091E30011
:104D800087FF02C083E0A9CF81E0A7CF81E0ADCF4C
:104D90001F920F920FB60F921124EF92FF920F9372
:104DA0001F932F933F934F935F936F937F938F93B3
:104DB0009F93AF93BF93CF93EF93FF9309EE10E0D0
:104DC000F8018081C091EC008F70C795CC27C79502
:104DD000C82B108280EFE82EF12CF7018081877FAD
:104DE000808378940E94390FF8011082F701808146
:104DF00088608083CF70F801C083FF91EF91CF91DD
:104E0000BF91AF919F918F917F916F915F914F91E2
:104E10003F912F911F910F91FF90EF900F900FBE38
:104E20000F901F901895FF920F931F93CF93DF93CE
:104E3000182FEB011092BC0084EA8093BC000E9402
:104E4000B714082FF92E8091BC0087FF28C08091ED
:104E5000B900887F883029F08091B900887F80313F
:104E6000A1F51093BB0084E88093BC000E94B714A6
:104E7000182F092F8091BC0087FF1FC02091B90017
:104E8000287F80E090E0283199F081E090E02034A4
:104E900011F480E090E091958195910909C0802FEF
:104EA0009F2D0E94C314C817D90768F68EEF9FEF95
:104EB000CDB7DEB7E5E00C94822A812F902F0E94B7
:104EC000C314C817D907B0F6F1CF8FEF9FEFF0CF1B
:104ED0001092B9008CE08093B80008950F931F934F
:104EE000CF93DF93EB018093BB0084E88093BC00F9
:104EF0000E94B714182F092F8091BC0087FF11C0A2
:104F00002091B900287F81E090E0283211F480E000
:104F100090E0919581959109DF91CF911F910F912B
:104F20000895CF3FDC0741F3812F902F0E94C314D7
:104F3000C817D90708F78EEF9FEFEECFA0E0B0E0DB
:104F4000E4EAF7E20C945E2A782EB62EA72E6A01C8
:104F5000E9010E94B7144C01C431D10528F1CF3FBB
:104F6000DC0731F1CE0164E170E00E94452AF62EA3
:104F7000E72E6F2D7E2D872D0E9413278C01892B04
:104F8000D1F4EB2CFA2CCE0CDF1CEC14FD0419F040
:104F900001151105D1F084E98093BC00C801CDB79B
:104FA000DEB7EDE00C947A2AFF24F394E12CE1CFF4
:104FB00085E0F82EFBCFCF3FDC07D9F2C4010E9479
:104FC000C314C817D907A8F6DCCFBE01F701819139
:104FD0007F010E946E278C01D8CFA0E0B0E0E3EF04
:104FE000F7E20C945E2A782EB62EA72E6A0189016C
:104FF0000E94B7144C010431110518F10F3F10073E
:1050000019F1C80164E170E00E94452AEB01BE017C
:10501000872D0E9413277C01892BC1F4CB2DDA2D1B
:10502000CC0EDD1ECC15DD0519F0E114F104C1F044
:1050300084E98093BC00C701CDB7DEB7EDE00C94E6
:105040007A2AC1E0D0E0E3CFC5E0FCCF0F3F1007E4
:10505000F1F2C4010E94C31408171907C0F6DECF8D
:10506000FE018491B8010E946E277C012196DACF5F
:10507000A0E0B0E0EEE3F8E20C945D2A682E962EF4
:105080005A01690178010E94B714782E892E0431E3
:10509000110530F10F3F100731F1C80164E170E0F4
:1050A0000E94452A162F072F612F702F862D0E94F0
:1050B0001327EC01892BC9F0FFEFEF16FF06A1F3D0
:1050C000872D982D0E94C314E816F90668F784E925
:1050D0008093BC00CE01CDB7DEB7EEE00C94792A08
:1050E00011E000E0E1CF15E0FCCFB701892D0E946F
:1050F0006E27EC018501CA0CDB1C0C151D0539F36C
:10510000209729F7B701F80181918F010E946E273E
:10511000EC01F3CF8EE14A9B02C08A95E1F74A9BEE
:10512000FECF08955A9880E28A95F1F75A9A089529
:10513000FC013BE03A95F1F798E020E080E031E0B7
:1051400040E14A95F1F7880F4A9B02C0816023270E
:1051500042E04A95F1F7000040E14A95F1F79A954F
:1051600079F790E19A95F1F799B132E03A95F1F734
:10517000000040E14A95F1F792FB992790F99227B8
:105180002081920F90830895A1E0B0E0EAECF8E26C
:105190000C94652A19828C017C01E60EF11C0E9498
:1051A0008A28CE0101960E949828F80181938F01E8
:1051B000EE15FF05A1F781E09981911180E021961C
:1051C000E6E00C94812A529A5A9A089552985A9A73
:1051D000EA9AE9E6F0E080818F7C8083089561504F
:1051E000770B91E001C0990F6A95EAF7692F90E07B
:1051F00021E0611108C0911599F05A9A80E28A95D0
:10520000F1F75A980895362F3823311539F05A9A04
:10521000922730E23A95F1F76695EBCF5A98F9CF9D
:105220005A98ECCFFF920F931F93CF93DF93EC012B
:105230008C01060F111DF9900E94922868E08F2DB5
:105240000E94EF28C017D107B1F7CDB7DEB7E5E070
:105250000C94822A1F920F920FB60F9211240F9373
:105260001F932F933F934F935F936F937F938F93EE
:105270009F93AF93BF93EF93FF93CF93DF930F92DF
:10528000CDB7DEB719820E948A28CE0101960E940E
:105290009828082F069506950695982F9295957053
:1052A000202F2570920F292F237096959695920F97
:1052B000982797708981892B811509F05CC0063089
:1052C00008F059C080E18A95F1F75A9A529A82E023
:1052D0008A95F1F700C05A9888E0089F8001112450
:1052E000D801AF5DBE4F1696ED91FC9117973097A0
:1052F000A9F060913E0270913F0214962D913C916D
:105300001597260F371F11968D919C911297680F54
:10531000791F13964C9113978C910995F801EF5DC5
:10532000FE4F6381611551F020913E0230913F02A2
:1053300084819581820F931F0E9412290E949228D6
:1053400080E18A95F1F75A9852985A9A80E18A95A5
:10535000F1F7F801EF5DFE4F6081611551F020918A
:105360003E0230913F0281819281820F931F0E9401
:10537000C4280E948A280F90DF91CF91FF91EF916E
:10538000BF91AF919F918F917F916F915F914F915D
:105390003F912F911F910F910F900FBE0F901F9073
:1053A00018950F931F93CF93DF938C0106970CF002
:1053B00064C0F894529A5A9885E08A95F1F70000F3
:1053C000C02FC695C570802F8570C80F8C2F837035
:1053D000C695C69593E0000F111F9A95E1F7C80F87
:1053E000C8018C2BEC010E94922800C068E08C2F31
:1053F0000E94EF2890E19A95F1F752985A9A4A9BA9
:1054000035C087E090E04A9933C0F801EF5DFE4F68
:105410006381611561F020913E0230913F028481E9
:105420009581820F931F0E94C428811519F10E9453
:105430008A2880E28A95F1F75A98529A90E19A95D3
:10544000F1F7F801EF5DFE4F6081611551F0209199
:105450003E0230913F0281819281820F931F0E9410
:1054600012290E949228789481E008C000C0C7CF1A
:10547000019749F4529A5A9A789480E0DF91CF913B
:105480001F910F91089500C0BECFAA1BBB1B51E115
:1054900007C0AA1FBB1FA617B70710F0A61BB70BA4
:1054A000881F991F5A95A9F780959095BC01CD0149
:1054B00008952F923F924F925F926F927F928F92B8
:1054C0009F92AF92BF92CF92DF92EF92FF920F9393
:1054D0001F93CF93DF93CDB7DEB7CA1BDB0B0FB69D
:1054E000F894DEBF0FBECDBF09942A88398848885A
:1054F0005F846E847D848C849B84AA84B984C884F0
:10550000DF80EE80FD800C811B81AA81B981CE0FE6
:10551000D11D0FB6F894DEBF0FBECDBFED010895CB
:10552000992778E0880F991F961708F0961B881F17
:105530007A95C9F78095089597FB072E16F4009485
:1055400007D077FD09D00E94452A07FC05D03EF41C
:10555000909581959F4F0895709561957F4F08951F
:10556000EE0FFF1F0590F491E02D09948F929F920A
:10557000AF92BF92CF92DF92EF92FF92CF93DF93E1
:10558000EC01688179818A819B81611571058105B2
:10559000910521F464E279ED8BE597E02DE133EF9D
:1055A00041E050E00E948A2B49015A019B01AC0165
:1055B000A7EAB1E40E94A92B6B017C01ACEEB4EF29
:1055C000A50194010E94B72BDC01CB018C0D9D1D20
:1055D000AE1DBF1DB7FF03C00197A109B048888366
:1055E0009983AA83BB839F77DF91CF91FF90EF9040
:1055F000DF90CF90BF90AF909F908F9008950E94C2
:10560000B62A089580E091E00E94B62A0895B0E09D
:10561000A0E08093000190930101A0930201B09358
:1056200003010895FB01DC0102C005900D92415079
:105630005040D8F70895FB01DC0104C08D91019022
:10564000801921F441505040C8F7881B990B0895E8
:10565000FB01DC0102C001900D9241505040D8F78F
:105660000895DC0101C06D9341505040E0F708956A
:10567000DC01CB01FC01F999FECF06C0F2BDE1BD12
:10568000F89A319600B40D9241505040B8F7089501
:10569000F999FECF92BD81BDF89A992780B50895FA
:1056A000A8E1B0E042E050E00C943A2BDC01A40FFA
:1056B000B51F4150504048F0CB01840F951F2E91EB
:1056C0000E94672B41505040D0F70895262FF9993A
:1056D000FECF92BD81BDF89A019700B4021639F051
:1056E0001FBA20BD0FB6F894FA9AF99A0FBE089522
:1056F0000396272F0E94672B0E94662B252F0E945E
:10570000672B242F0C94672B0196272F0E94672B61
:105710000C94662B052E97FB1EF400940E94A12B7F
:1057200057FD07D00E94BC2B07FC03D04EF40C940D
:10573000A12B50954095309521953F4F4F4F5F4F8E
:10574000089590958095709561957F4F8F4F9F4FED
:1057500008950E94DE2BA59F900DB49F900DA49FED
:10576000800D911D11240895B7FF0C94A92B0E9460
:10577000A92B821B930B0895A1E21A2EAA1BBB1B17
:10578000FD010DC0AA1FBB1FEE1FFF1FA217B3070D
:10579000E407F50720F0A21BB30BE40BF50B661F23
:1057A000771F881F991F1A9469F7609570958095E7
:1057B00090959B01AC01BD01CF010895A29FB0015E
:1057C000B39FC001A39F700D811D1124911DB29F35
:1057D000700D811D1124911D0895F894FFCF1A10AA
:1057E00040104610401046109910BB104610B911D9
:1057F000C611081970191019DA18DE181419E218F0
:1058000018192419EE186919F2182819F6182C1904
:105810005119FA1830195819001936193E19E61895
:105820001C19EA18201904193A194819611967193D
:10583000D4180C1977198C198F19D8199519DE19E4
:105840009B19E419A119EA19A719F019BB19CE1966
:105850008C198F19D8199519DE199B19E419A119FA
:10586000EA19A719F019A318A71885189F18AB18DB
:04587000AF18B318A2
:1058740001000000370000FF00FFFF390501E10AC5
:10588400980DAF0D230BB60DFF000021007F220001
:1058940003000000010000000000000004010000FB
:1058A40000040500000000000004090000000000DE
:1058B40000090D00000000000000000100200300AA
:1058C400FF78003131295A1B750A946697C6F4F59E
:1058D400F6F73133181712110A09191613100B08A9
:1058E4001A15140F0C07FFFFFF0E0D0633322D2C73
:1058F400252434312E2B262335302F2A2722FFFF4F
:10590400FF2928215510320D101410263230553439
:105914005F3F552755155504440244134425503A16
:105924003C373223320D3200210321142125102A61
:10593400101810070007001800298B10AE0DD014A2
:10594400D026AE308B34813F8B278B158B049C0281
:105954009C139C25903AA437AE23AE0DAE00BF0332
:10596400BF14BF25D02AD018D007E007E018E029DB
:1059740002020202020201040404040404010104F8
:1059840004040404040404040101010202020202E6
:1059940002010404040404040101040404040404CE
:1059A4000404040101010008101818100800750609
:1059B400E200E900EA00B500B600B700CD008301BB
:1059C400CC008A01920194012102230224022502BF
:1059D400260227022A02B300B4006F0070009F0160
:1059E400CB019F02A002E200E900EA00B500B60084
:1059F400B700CD008301CC008A01920194012102F9
:105A0400230224022502260227022A02B300B4003C
:0C5A14006F0070009F01CB019F02A002F8
:00000001FF
