:100000000C9455050C9472050C9472050C94572BA6
:100010000C9472050C9472050C9472050C94720584
:100020000C9472050C9472050C940D280C94F52810
:100030000C94A8130C9472050C9472050C94720520
:100040000C9472050C9472050C9472050C94720554
:100050000C9472050C94E9270C9472050C947205AB
:100060000C9472050C9472050C9472050C94720534
:100070000C9472050C9472050C9472050C94720524
:100080000C9472050C9472050C9472050C94720514
:100090000C9472050C9472050C9472050C94720504
:1000A0000C9472050C9472050C94720500AF00AEAE
:1000B0000000000000003E5B4F5B3E003E6B4F6B5C
:1000C0003E001C3E7C3E1C00183C7E3C18001C5729
:1000D0007D571C001C5E7F5E1C0000183C18000051
:1000E000FFE7C3E7FF00001824180000FFE7DBE785
:1000F000FF0030483A060E00262979292600407F65
:1001000005050700407F05253F005A3CE73C5A00A3
:100110007F3E1C1C0800081C1C3E7F0014227F220E
:1001200014005F5F005F5F0006097F017F000066CB
:1001300089956A0060606060600094A2FFA29400EC
:1001400008047E04080010207E20100008082A1CE5
:100150000800081C2A0808001E10101010000C1EB1
:100160000C1E0C0030383E383000060E3E0E0600E5
:1001700000000000000000005F0000000007000712
:100180000000147F147F1400242A7F2A12002313F6
:10019000086462003649562050000008070300003A
:1001A000001C224100000041221C00002A1C7F1C70
:1001B0002A0008083E080800008070300000080887
:1001C0000808080000006060000020100804020019
:1001D0003E5149453E0000427F4000007249494976
:1001E00046002141494D33001814127F1000274565
:1001F000454539003C4A4949310041211109070070
:10020000364949493600464949291E000000140074
:1002100000000040340000000008142241001414C3
:1002200014141400004122140800020159090600A8
:100230003E415D594E007C1211127C007F494949B4
:1002400036003E41414122007F4141413E007F490D
:10025000494941007F09090901003E4141517300AC
:100260007F0808087F0000417F4100002040413F97
:1002700001007F08142241007F40404040007F027F
:100280001C027F007F0408107F003E4141413E0078
:100290007F09090906003E4151215E007F091929A5
:1002A000460026494949320003017F0103003F40CF
:1002B00040403F001F2040201F003F4038403F008B
:1002C0006314081463000304780403006159494D62
:1002D0004300007F4141410002040810200000411A
:1002E00041417F00040201020400404040404000C0
:1002F0000003070800002054547840007F2844443D
:100300003800384444442800384444287F00385496
:100310005454180000087E0902001824241C780098
:100320007F080404780000447D4000002040403DE8
:1003300000007F102844000000417F4000007C0442
:10034000780478007C080404780038444444380079
:100350007C1824241800182424187C007C08040429
:10036000080048545454240004043F4424003C40F2
:1003700040207C001C2040201C003C4030403C00C1
:100380004428102844004C9090907C004464544CC5
:1003900044000008364100000000770000000041E2
:1003A000360800000201020402003C2623263C001D
:1003B000000000000000000000000000000000003D
:1003C000C0E0F0F8F81800C0F0FCFEFFFFFFFFFFF0
:1003D000FFFF7E00000000000000000080C0E0E0A1
:1003E000E0E0E0E0E0E0C0800000000080C0E0E08D
:1003F000E0E0E0E0E0E0C080000000E0E0C0C0E05D
:10040000E0E0E00000E0E0C0C0E0E0E0E0E0C0806C
:100410000000000080C0E0E0E0E0E0E0E0E0C0805C
:100420000000000000000000000000000000E0F0FC
:10043000F0F0E0ECEEF7F37020007C7C7C7E007E38
:100440007E7E7F7F7F000080C0E07E5B4F5BFEC0D2
:100450000000C000DCD7DEDEDED7DC00C00000001C
:10046000000000000000000000000000000000008C
:10047000000000000000000000F8FCFEFFE000FFAC
:10048000FFFFFFFFFF80FFFFFFFFFFFFFFFFFF1FDB
:100490000701000000000000000000FFFFFF8100D6
:1004A000000000000081C3C3C30000FFFFFF810004
:1004B000000000000081FFFFFF0000FFFFFF0100C0
:1004C0000000000000FFFFFF010000000001FFFF2F
:1004D000FF0000FFFFFF9D1C1C1C1C1C1C9DDFDF80
:1004E000DF000000000000000000000000000F1FFF
:1004F0003F7F7F7F7F7F3F1E0C001F1F1F3F003FFE
:100500003F3F7F7F7F00307B7F7830202030787FB7
:100510003B0003000F7F0F0F0F7F0F000300000051
:1005200000000000000000000000000000000000CB
:10053000000000000000000000030F1F3F3F3F3F8E
:100540001F1F3F3F7F7F7F3F3F1F3F7F7F7F7F7C1E
:100550007878381C0F000000000000000103070736
:10056000070707070707030100000000010307074B
:100570000707070707070301000000070707000038
:100580000000000000070707000000000000070748
:100590000700000001030707070707070707030114
:1005A000000000000000000000000000000000004B
:1005B000000000000000000000000000000000003B
:1005C000000000000000000000000000000000002B
:1005D000000000000000000000000000000000001B
:1005E000000000000000000000000000000000000B
:1005F00005010902A10185020901A10005091901EE
:1006000029081500250195087501810205010930A9
:1006100009311581257F95027508810609381581F4
:10062000257F950175088106050C0A38021581257C
:100630007F950175088106C0C005010980A101856B
:100640000319012AB700150126B70095017510811D
:1006500000C0050C0901A101850419012AA0021599
:100660000126A002950175108100C005010906A1AF
:10067000018506050719E029E7150025019508758C
:100680000181020507190029EF1500250195F07574
:100690000181020508190129059505750191029549
:1006A0000175039101C005010906A101050719E0C3
:1006B00029E7150025019508750181029501750846
:1006C00081010507190029FF150026FF0095067511
:1006D00008810005081901290515002501950575F2
:1006E000019102950175039101C009023B000201CD
:1006F00000A0FA0904000001030101000921110111
:1007000000012244000705810308000109040100DB
:10071000010300000009211101000122B6000705B4
:10072000820320000112010002000000085346016C
:10073000000100010200010C0343006F0072006E13
:100740000065000000100366006F006F0073007406
:100750000061006E000000040309040001010101B2
:10076000010101010102020202020202020203036C
:10077000030303030303040404040404040505053C
:1007800005050606060606070707070708080808FE
:10079000090909090A0A0A0B0B0B0C0C0C0D0D0DAB
:1007A0000E0E0E0F0F0F1010111111121213131441
:1007B00014151516161717181819191A1A1B1B1CB9
:1007C0001D1D1E1E1F202021222223242425262613
:1007D000272829292A2B2C2D2D2E2F303132323348
:1007E0003435363738393A3B3C3D3E3F4041424351
:1007F0004445464748494A4C4D4E4F505153545535
:100800005658595A5B5D5E5F616264656668696BE4
:100810006C6D6F7072737577787A7B7D7E80828362
:100820008587888A8C8E8F91939596989A9C9EA0A6
:10083000A2A3A5A7A9ABADAFB1B3B5B7BABCBEC0B3
:10084000C2C4C6C9CBCDCFD1D4D6D8DBDDDFE2E47C
:10085000E7E9EBEEF0F3F5F8FAFDFF00DA0281FFCD
:10086000D9F1DB20A4A62EAF00A0C0D30000A1C800
:10087000D30000AED580A81F408D14200080818257
:10088000838485868788898A8B8C8D8E8F909192C0
:100890009394A0A1A2A3A4A5A6A7A8A9AAABACAD16
:1008A000AEAFB0B1B2B3B4C0C1C2C3C4C5C6C7C88D
:1008B000C9CACBCCCDCECFD0D1D2D3D4003A002C24
:1008C000206B007800556E6465660041646A75733C
:1008D00074005261697365004C6F776572004465FE
:1008E0006661756C74004C617965723A20002B006A
:1008F00014001A00080015001700E100040016009B
:10090000070009000A00E0001D001B000600190096
:100910000500000000000000E20021522C002A0027
:10092000130012000C0018001C004C0033000F00D4
:100930000E000D000B00167C38003700360010004A
:100940001100000000000000E30022522800000017
:100950000000D900D100CD00D200E1000000DA0093
:10096000CF00CE00D00000000000D400DB00D30098
:10097000DC00000000000000E20001002C00A900E3
:10098000AB003000260025002400A800AE0038008F
:10099000230022002100AA00AC00270220001F0033
:1009A0001E00000000000000E3002700280042783D
:1009B00043784578477849784B78E1004478467821
:1009C00048784A784C784000410042004300440097
:1009D0004500000000000000E20023522C00490006
:1009E00000004B004D0052004A00650000004E0020
:1009F0004F00510050003F003E003D003C003B00D6
:100A00003A00000000000000E30001002800351457
:100A10001E021F0220022102220239001E141F148E
:100A2000201421142214570056005500540067006A
:100A30004600000000000000E20001002C002D0034
:100A4000270226022502240223022F023500301439
:100A50002F141E1423146402640032143414351449
:100A60002E00000000000000E3000100280020200C
:100A700020206162636465666768696A6B6C6D6E8D
:100A80006F707172737475767778797A3132333426
:100A9000353637383930524542545F2D3D5B5D5C09
:100AA000233B27602C2E2F20202011241FBECFEFA8
:100AB000DAE0DEBFCDBF27E0AAEAB2E001C01D92B6
:100AC000AB33B207E1F712E0A0E0B1E0ECE0FDE506
:100AD00002C005900D92AA3AB107D9F70E940522EB
:100AE0000C941A2E0C9400009093F3068093F20657
:100AF00008959093F5068093F406089521E030E080
:100B000002C0220F331F8A95E2F78091F40690917C
:100B1000F506822B932B0E947905089521E030E0A1
:100B200002C0220F331F8A95E2F7209530958091FD
:100B3000F4069091F506822393230E947905089587
:100B4000983090F5863080F5E82FF0E086E0989FA9
:100B5000E00DF11D11248E2F877041E001C0440F7C
:100B60008A95EAF783E0F695E7958A95E1F7EE0F27
:100B7000FF1FEE0FFF1FE354F94F20E030E070E05D
:100B80005191DF01CB01022E02C0969587950A9400
:100B9000E2F7817081958527842385278E932F5FC7
:100BA0003F4F2430310561F70895983078F586304D
:100BB00068F5E82FF0E086E0989FE00DF11D112424
:100BC0009E2F977083E0F695E7958A95E1F7EE0FF3
:100BD000FF1FEE0FFF1FE354F94F40E050E080E0AD
:100BE000219130E0092E02C0369527950A94E2F74C
:100BF00021703327042E01C0220F0A94EAF7822BBA
:100C00004F5F5F4F4430510559F7089580E00895D4
:100C10008091FB069091FA06981301C008958F5FAA
:100C20008770FACF9091F606809589238093F60617
:100C3000282F277021110DC0891759F09091F806BF
:100C400092FF07C08695869586950E948E05109224
:100C5000F60608958091EF069091F906892B509140
:100C6000F006511591F090914901913021F4909145
:100C7000F70697FD0BC096E02EEA32E040E0915077
:100C800048F441111092F006852B08959EE126EB61
:100C900032E0F4CFF90161919F01611581F34F5F5B
:100CA000EECF982F90958091EF0689238093EF06E1
:100CB00008957830B8F46630A8F48430B0F4E62FA4
:100CC000F0E096E0799FE00DF11D112490E3899FFB
:100CD000E00DF11D1124EE0FFF1FE251F74F85913A
:100CE0009491089580E090E0089581E0FCCF9C010C
:100CF000803E910509F448C0D8F48133910509F488
:100D00007DC048F48932910509F46DC08A9709F4D1
:100D10007CC0C90108958933910551F1823891054C
:100D200039F1C597B1F78091F70685FFF2CF29C059
:100D3000843E910509F447C048F4823E910599F13B
:100D4000833E9105A9F121EE30E0E3CF863E910587
:100D500009F444C0873E9105E1F68091F70683FDD2
:100D600061C09091F80691FF2BC024EE30E0D1CF06
:100D70008091F7068370811152C08091F80683FF3D
:100D8000C8CF29E230E0C5CF8091F70680FD33C09F
:100D90009091F80690FFBDCF23EE30E084FFB9CFED
:100DA00020E030E0B6CF8091F70682FDF5CFB1CFDD
:100DB0008091F70682FD30C09091F80690FD2FC01B
:100DC00084FFA7CFEDCF8091F80681FFA2CF80915D
:100DD000F70627EE30E084FDE3CF9BCF8091F70646
:100DE00083FDF7CF96CF8091F70685FD1EC08091D9
:100DF000F80683FF8ECF29E330E08BCF8091F70692
:100E000086FF87CF2AE230E084CF8091F70686FF05
:100E100080CF21E330E07DCF22EE30E07ACF20EEAC
:100E200030E077CF26EE30E074CF25E330E071CFAD
:100E30009091F70692FF10C041E0282F24712430D2
:100E400009F040E031E0282F2871283009F030E027
:100E5000431711F02CE0822793FF10C041E0282FA8
:100E60002471243109F040E031E0282F2871283125
:100E700009F030E0431711F02CE082273091F8069A
:100E800030FF10C051E0282F2171213009F050E0CF
:100E900041E0282F2871283009F040E0541711F064
:100EA00029E0822731FF10C041E0282F2171213134
:100EB00009F040E031E0282F2871283109F030E0B6
:100EC000431711F029E0822794FD877E08951F9330
:100ED000CF93DF930E947706EC01811522E59207FC
:100EE00008F055C0811540E5940708F0D1C0803E58
:100EF000910520F58D3C910508F0A4C0883A910534
:100F000070F4853A910508F09AC081309105D1F1CD
:100F10000497813A9105B0F1C0E0D0E033C0885A1F
:100F200091094B97C8F7C85AD0E0CC0FDD1FC25CBF
:100F3000DD4F0990D881C02DD46424C0811550E4C0
:100F40009507C0F4C11580E2D80708F0B7C0C83EC5
:100F5000D105C0F0CE019A9581159F41E8F68D2FFD
:100F60000E941807182FCE0199270E947706EC01DE
:100F7000D12B08C099270E947706CC27DF70C82B99
:100F8000D92BD06ACE01DF91CF911F91089580387F
:100F900042E59407C8F5803652E5950708F05BC036
:100FA000C03482E5D807D0F4C03292E5D90708F002
:100FB0004BC08C2F8695869520E2829FC00111241C
:100FC000C37021E030E0A90102C0440F551FCA954B
:100FD000E2F7EA01C82BD92BDD68D4CF8C2F869598
:100FE0008695877050E2859FC0011124C37021E06F
:100FF00030E0A90102C0440F551FCA95E2F7EA018B
:10100000C82BD92BDC68BECF803C52E5950758F43D
:101010008F71C03AD245A0F590E0982F8827EC0157
:10102000C46FD06AAFCF805C9245809708F074CFD0
:10103000DC2FCC27CC27DF71C06FD06AA3CFA49759
:10104000D064A0CFD0659ECFCF71D0E0DC2FCC276D
:10105000C16FD06A97CF86958695877020E2829F70
:10106000C0011124C37021E030E0A90102C0440F87
:10107000551FCA95E2F7EA01C82BD92BDA6882CF4F
:101080000E941807C82FD0E0DC2FCC27D0627ACF7F
:101090008F710E94180793E0CC0FDD1F9A95E1F73E
:1010A000CC27DF70282F30E084FF04C050E1859FFB
:1010B00090011124C22BD32BD06964CF8D2F8F7157
:1010C0000E941807182FCE0199270E947706EC017D
:1010D000D12BDCCFA0E0B0E0E0E7F8E00C948F2C5F
:1010E0008C01E090F406F090F5068091F206909164
:1010F000F306E82AF92ACFE0D0E0CC24C394D12C1F
:10110000C6010C2E02C0880F991F0A94E2F78E21A7
:101110009F21892B49F4219798F7B12C8B2DCDB7BE
:10112000DEB7E9E00C94AB2CBC2EB8018C2F0E94EA
:1011300059060E946707019771F3F0CF0F931F9331
:10114000CF93FC01858100811181811591F061159A
:1011500081F0C8010E946A08C82F682FC8010E9448
:10116000A005B8018C2F0E945906CF911F910F91B5
:101170000895C8010E94D505C82FF3CFCF93DF9300
:10118000D82FC92F0E946A086D2F7C2F0E94590604
:101190000E946707DF91CF910895FC01848181153A
:1011A000A1F0808191810E94BE08282F92959F70A6
:1011B000963099F060F4925F9F70923030F4203F47
:1011C000B1F038F481E0283E38F080E008959A5F6D
:1011D000F3CF81E0243FC9F7089591E0213F09F062
:1011E00090E081E0283E08F080E0892B089581E0BE
:1011F000089580E00895F894E82FE295EF70F0E00C
:1012000041A18F7021E030E0B90102C0660F771F65
:101210008A95E2F7CB01962F9095942391A392A102
:10122000892B82A378940895CF92DF92EF92FF9258
:101230001F93CF93DF93172FE82FF0E0E55AF84F75
:1012400071110CC0E4918E2F7E2F6E2FDF91CF9104
:101250001F91FF90EF90DF90CF900895E62EF12C34
:10126000C72ED12CF491EF2F86E0689F90011124B6
:10127000CFEFD0E0C901BE010E94722CAB01EE0C91
:10128000FF1C65E5649FC001659F900D1124E81A5D
:10129000F90A6E2D660F6E0D7E01EC18FD08FE9D9D
:1012A000D001FF9DB00D11248B2F169F70011124CA
:1012B000EF2CFF246E01CE18DF087601FE9D600141
:1012C000FF9DD00C11247E01E61AF108B701169F8C
:1012D0007001179FF00C1124EF2CFF24CE19DF09A9
:1012E000FC9F7001FD9FF00C11247F2D43305105B0
:1012F000C1F02C3F334058F441305105B1F0423039
:10130000510509F0A2CFEB2F8F2D7F2F9ECF4430B8
:10131000510571F04630510509F497CF7B2F8D2D83
:1013200094CF7D2DEB2F8F2F90CF7F2FED2D8DCF55
:10133000EF2D7B2FF8CF482F2695E22F26FDE09545
:101340009E2F9F7026FD9F5FE695E695E695E670D9
:10135000F0E0E05BFE4F3181399F302D912D11245B
:1013600032953F709295907F392B9081930F27FD96
:10137000919597FD9195990F292F249F212D112447
:10138000822F0895FC0180918C06811104C0EB31FD
:10139000F1050CF07B97CF010E94280A0895FF9277
:1013A0000F931F93CF93DF93182F062FF42EC0E0D7
:1013B000D0E02F2D402F612FCE010E94C20921962F
:1013C000C633D105B1F7CDB7DEB7E5E00C94AF2C4D
:1013D0009BE0899F802D1124980F973308F096E3A6
:1013E00020918C06211104C08B3128F48BE10895E3
:1013F0009C3108F09BE10895E6EEF6E0808191E0F3
:101400008927808310924C018091EE068160809341
:10141000EE060895E6EEF6E024813AE0230F08F4A4
:101420002FEF24838091EE0681608093EE0608956D
:10143000E6EEF6E024813AE0231B08F420E0248362
:101440008091EE0681608093EE060895539A089588
:10145000FC01EE0FFF1FE80FF91FEE5FFC4F6183E9
:10146000408322830895282F35EB2303C0011124E4
:1014700097FF04C080589109892F089580589F4F85
:10148000FBCF80918B06811559F0E091B306F09166
:10149000B406309729F00190F081E02D0995089568
:1014A00080E00895A3E0B0E0E8E5FAE00C94962C23
:1014B0009C01809100039091010382179307A1F092
:1014C0003093010320930003E091B306F091B4063A
:1014D000309751F083E089833B832A830084F18530
:1014E000E02DCE01019609952396E2E00C94B22CF2
:1014F000A3E0B0E0EEE7FAE00C94962C9C0180911A
:10150000FE029091FF0282179307A1F03093FF0231
:101510002093FE02E091B306F091B406309751F0AB
:1015200084E089833B832A830084F185E02DCE010A
:10153000019609952396E2E00C94B22C9091490112
:10154000913091F0AEEAB2E0EFEF90E02D9182178A
:1015500051F0EF3F19F4211101C0E92F9F5F963040
:10156000A9F7EF3FC9F408959091F70697FFEACFE6
:10157000E82FE695E695E695803FA8F7F0E0EC5475
:10158000FD4F877021E030E001C0220F8A95EAF715
:101590008281822B828308950E2E000CFF0BE4556E
:1015A000FD4FF8CF90914901913021F49091F706C9
:1015B00097FD0CC0EEEAF2E09191891302C0DF01C1
:1015C0001E9252E0E43BF507B9F70895E82FE6953F
:1015D000E695E695803FC8F7F0E0EC54FD4F877044
:1015E00021E030E0A90102C0440F551F8A95E2F7BF
:1015F000CA01809592818923828308958091480150
:1016000008952FB7F8946091FA027091FB028091CF
:10161000FC029091FD022FBF0895CF92DF92EF92CE
:10162000FF9280918B06811559F00E94010B6B018E
:101630007C01C701B601FF90EF90DF90CF90089535
:101640000E94010BC0908D06D0908E06E0908F0610
:10165000F0909006C60ED71EE81EF91EEACF87E767
:1016600097E7909301088093000888E19AE00FB60D
:10167000F894A895809360000FBE90936000FFCF10
:10168000FC019B018091F0029091F102861797076F
:1016900040F0672B29F48091E8008E778093E80072
:1016A000C90140E0009741F4411106C08091E80073
:1016B00082FF2FC080E008952091EA032115A9F14F
:1016C0002530A9F12091E80023FD2DC02091E800EC
:1016D00022FDECCF2091E80020FFE4CF3091F30011
:1016E0002091F200009719F02830310558F041E0C0
:1016F0002830310509F040E02091E8002E77209352
:10170000E800D0CF41914093F10001972F5F3F4F08
:10171000E9CF8091EA03811541F0853041F0809155
:10172000E80083FFC3CF81E0089582E0089583E05D
:1017300008958091EA0287FF13C08091E80082FF3C
:1017400006C08091E8008B778093E800089580912F
:10175000EA038111F2CF08958091EA038115D9F34C
:101760008091E80080FFF8CF8091E8008E77ECCF81
:101770002091E4003091E50095E6A9012091EC006C
:10178000822F817020FF06C08091E80080FF06C094
:1017900080E008952091E80022FD1AC08091EA03BC
:1017A000811589F0853089F08091EB0085FD0FC0AF
:1017B0002091E4003091E50042175307F9F29A9521
:1017C000E1F684E0089582E0089583E0089581E0E1
:1017D0000895E8EDF0E080818E7F80831092E20032
:1017E0001092DA001092E100A0EEB0E08C918160DE
:1017F0008C9380818F77808319BCA7EDB0E08C91AA
:101800008E7F8C9380818F7E80831092E902089571
:10181000FC01AC014C5F5F4F8FEF61E39191892731
:1018200028E030E0982F990F87FF09C0892F86277D
:1018300021503040B9F7E417F50781F70895892F53
:10184000F7CF9091E6069370911591F0843008F0EF
:1018500083E0880F880F9091E6069370892B809320
:10186000E60610924C018091EE0681608093EE06B0
:1018700008958091E606869586958F5F843008F0FE
:1018800081E00E94210C08958091E6068695869558
:101890008A9509F483E00E94210C08959091E60650
:1018A0009370911571F08093E7066093E8064937CD
:1018B00008F048E74093E9068091EE068160809346
:1018C000EE060895E6EEF6E0818190E043816281C4
:1018D00008960E944E0C0895E6EEF6E08181438161
:1018E00062818850990B0E944E0C0895E6EEF6E056
:1018F000628128E0620F08F46FEF8181438190E0FC
:101900000E944E0C0895E6EEF6E0628128E0621B2C
:1019100008F460E08181438190E00E944E0C0895BC
:10192000E6EEF6E0438128E0420F08F44FEF8181B4
:10193000628190E00E944E0C0895E6EEF6E043814D
:1019400028E0421B08F440E08181628190E00E941F
:101950004E0C0895982F9093E900891771F07091BB
:10196000EC002091ED005091F00021FD09C09F5F37
:10197000973089F78093E9000895762F242F50E05F
:101980003091EB003E7F3093EB003091ED003D7FD6
:101990003093ED003091EB0031603093EB007093A9
:1019A000EC002093ED005093F0002091EE0027FD15
:1019B000DECF0895A0E0B0E0E0EEFCE00C94902CC7
:1019C000C8EDD0E088818F7E8883E7EDF0E08081EC
:1019D0008160808384E082BF81E08093E902888116
:1019E0008E7F888302EE10E0F80110821092DA00F8
:1019F00081EEC82ED12CF601108288818F778883E2
:101A000088818068888388818F7D888319BC109243
:101A1000EA031092E8021092E9031092E70290EEB6
:101A2000E92EF12CF70180818B7F80838881816092
:101A3000888342E060E080E00E94AA0CF601808189
:101A40008E7F8083F80180818160808380818860BF
:101A50008083F70180818E7F808388818061888385
:101A6000CDB7DEB7E8E00C94AC2CE091FB0690918A
:101A7000FA0627E0E91302C080E00895AE2FB0E037
:101A80002E9FF0011124E450F94F3181361306C026
:101A90003081381303C03581341304C0FD01319601
:101AA000E770E8CF81E008953BB1377F2BB1286024
:101AB0004FB7F89482E093E0FC010196508168E012
:101AC0002BB9000000C057FF3BB9550F000000C004
:101AD00000C000C03BB900C06A9591F753E0843A5A
:101AE000950751F74FBF8FE594E00197F1F700C0DC
:101AF000000008950F931F93CF93DF938B01EA01AA
:101B00009091EA03943059F58093E9008FEF90911A
:101B1000E80095FD06C095ED9A95F1F700008A95CD
:101B2000B1F78091E80085FF1AC00E94B80B8111BF
:101B300011C08091E80085FD06C08091E8008E7795
:101B40008093E800F2CFF80181918F018093F1003A
:101B5000219779F78091E8008E778093E800DF91F4
:101B6000CF911F910F910895CF93DF93D82FC92F55
:101B700048E050E0682F792F81E00E947A0D88E0DC
:101B8000ED2FFC2FA2EFB2E001900D928A95E1F7C4
:101B9000DF91CF910895BC0140E250E082E00E94C5
:101BA0007A0D0895BC0146E050E082E00E947A0D73
:101BB0000895BC0143E050E082E00E947A0D089550
:101BC000A0E0B0E0E6EEFDE00C948E2C182F092F7B
:101BD000B62EA72E7A018091DE029AE0C92ED12C72
:101BE0008A3018F0CC24C394D12CC1E0D0E06B2D06
:101BF0007A2D812F902FF7010995811116C021961A
:101C0000CC16DD0694F0CC9FC001CD9F900D900DB9
:101C1000112420E030E045E34A95F1F700002F5F02
:101C20003F4F28173907B9F7E2CFCDB7DEB7EAE063
:101C30000C94AA2C9091F80692FB222720F92817E1
:101C400079F080FB92F99093F8066091F706709115
:101C5000F80684E090E00E94B12D82E00E94120616
:101C6000089580914901813059F58091F70687FFE9
:101C700027C00E942A068093B50240E250E063E943
:101C800076E084EB92E00E94482D892BC1F080E23F
:101C9000E4EBF2E0A3E9B6E001900D928A95E1F75A
:101CA000E091B306F091B406309749F086E0809356
:101CB000B4020480F581E02D84EB92E0099508954B
:101CC0000E942A068093AC0248E050E065EB76E083
:101CD0008CEA92E00E94482D892B89F388E0ECEA97
:101CE000F2E0A5EBB6E001900D928A95E1F7E09164
:101CF000B306F091B406309711F30280F381E02D22
:101D00008CEA92E0DBCF811539F09091EF06892BB8
:101D10008093EF060E94310E0895811521F00E94F4
:101D200051060E94310E0895CF92DF92EF92FF92FA
:101D30001F93CF93DF9300D000D0CDB7DEB7C09014
:101D40006506D0906606E0906706F09068060E94EF
:101D5000010B6C197D098E099F0911E0643671052C
:101D60008105910578F10E940D0BDC01CB010296F3
:101D7000A11DB11D89839A83AB83BC8380913801F7
:101D8000909139018B58994F20913701422F50E0A3
:101D9000253010F044E050E0BE016F5F7F4F0E949D
:101DA000552D83E090E00E94FE2B182F811551F0F5
:101DB0000E94010B60936506709366068093670628
:101DC00090936806812F0F900F900F900F90DF91E6
:101DD000CF911F91FF90EF90DF90CF9008954F9299
:101DE0005F926F927F928F929F92BF92CF92DF927B
:101DF000EF92FF920F931F93CF93DF93C82F7B0136
:101E0000B42ED52FB9016801A8018B2D9D2F0E94FA
:101E1000482D4C01F70140805180628073800E9400
:101E2000010B6419750986099709643671058105E6
:101E3000910510F4892829F10C2F0C2E000C110BA0
:101E400088E0C802F0011124E15EFE4F8181928199
:101E50008B58994F2081422F50E0C216D10408F4CC
:101E6000A6016B2D7D2F0E94552DC8010E94FE2BCF
:101E7000811541F00E94010BF70160837183828319
:101E8000938381E0DF91CF911F910F91FF90EF90AD
:101E9000DF90CF90BF909F908F907F906F905F90DA
:101EA0004F9008950F931F93AC0104E010E02AE7D0
:101EB00036E069E676E082E00E94EF0E1F910F9116
:101EC0000895A9E0B0E0E7E6FFE00C94942C88E0E8
:101ED000E6EEF6E0DE01119601900D928A95E1F7AB
:101EE00080916006898709E010E022E836E0AE01C3
:101EF0004F5F5F4F61E676E084E00E94EF0E299627
:101F0000E4E00C94B02C8F929F92AF92BF92EF922C
:101F1000FF921F93CF93DF9300D000D00F92CDB7E5
:101F2000DEB77B0180E090E00E94FE2B182F811528
:101F300009F464C080912201482F50E0811511F00E
:101F400041E050E060912301709124016B58794F7A
:101F5000CE0105960E94552D8090710690907206D4
:101F6000A0907306B09074060E94010B681979095D
:101F70008A099B09643671058105910538F486E765
:101F800096E00E94080C9D818917C1F181E090E0E4
:101F90000E94FE2B811509F43FC080912A01482F31
:101FA00050E0853010F044E050E060912B017091DA
:101FB0002C016B58794FCE0101960E94552D86E772
:101FC00096E00E94080C9D81891326C00E94010B97
:101FD00060937106709372068093730690937406F3
:101FE00089819A81AB81BC8180936D0690936E0646
:101FF000A0936F06B093700681E00FC080917606C3
:1020000090917706A0917806B091790689839A839A
:10201000AB83BC831111E4CF80E040916D065091F9
:102020006E0660916F0670917006F70140835183D0
:10203000628373830F900F900F900F900F90DF913A
:10204000CF911F91FF90EF90BF90AF909F908F9096
:102050000895A3E0B0E0EFE2F0E10C94862C582E56
:102060008091080185112DC09091E6069370209112
:10207000070130E081E09217130609F480E08093B5
:1020800006018091EB0690910501981739F0809335
:10209000050140E060E080E00E94CF0922E0521696
:1020A00009F467C033E0531670F4511012C08091E8
:1020B0000601811561F040E060E080E00E94CF09F8
:1020C00006C081E0DCCF43E0541609F499C080E0FB
:1020D00022C0809104010E94E8098983192F609130
:1020E000E7067091E8068091E9060E941409062F20
:1020F000F72EE82E7981672F70E07B836A839A81BF
:10210000191709F0F8F480918C06811509F475C04F
:1021100081E01B31E0F6909104019F5F90930401F0
:1021200081110CC082E080934C01809106018111E5
:1021300005C0511003C083E080934C012396E2E177
:102140000C94A22CEA81FB81E250FE4F8081909199
:1021500005018923811539F02E2D4F2D602F8A819D
:102160009B810E94C2098A819B8101969B838A83FD
:10217000C6CF809104010E94E809192F3091EA0628
:102180003695369521E0320F08F43FEF6091DA037F
:102190007091DB0340E050E0639F412D739F400D41
:1021A000511D1124042FA82FB0E0BB83AA83FA810C
:1021B000F11708F0A8CFEA81FB81E250FE4F808141
:1021C000909105018923811591F06091E706709146
:1021D000E8068091E906202F4A810E949B090E940F
:1021E0001409472F282F8A819B810E94C209EA8106
:1021F000FB813196FB83EA83DACF81E016338ACF05
:102200004090E906E42CF12C9701220F331F2E0D8C
:102210003F1D36952795369527953B832A833A812E
:1022200039838FEF90E0B7010E94C92C362E809140
:102230000601811571F040E060E080E00E94CF0966
:10224000EAEAF3E080E3DF011D928A95E9F7109254
:10225000A9038091A8038F5F8093A8038AEAC82E00
:1022600083E0D82EA12CB12C3701EA81FB816E1AB4
:102270007F0A45018601212C8091A90382298111C1
:102280004BC00E942F2D853595400CF045C0D601DE
:102290004C92F401EE59FE4FE081EF3FD9F0D801A6
:1022A0002C91F0E0B981B21708F045C030E04A81C6
:1022B0005B81241B350B249FC001259F900D349F0B
:1022C000900D1124B3010E94722C262F442DCF01B2
:1022D0000E94C20923940A5F1F4F56E0850E911C8D
:1022E00068E02612C9CF7FEFA71AB70A8FEFC81A86
:1022F000D80A96E0A916B10409F0BBCF8091A803D3
:10230000381202C01092A8038091A9038F5F8D310B
:10231000F8F48093A903DBCEF8018081811509F4DC
:10232000B8CF841508F0B5CF9091A8033912B1CF7A
:1023300081508083AECF2E9DC0012F9D900D112422
:102340006A817B810E94722C462F20E060E0BFCF23
:102350001092A9032EEC33E087E040EB53E09FEFAF
:10236000940D8901EAEAF3E0873021F462A5461270
:1023700001C092A7D8016D918D01641548F07D01CF
:10238000B1E0EB1AF108D7019C93D80115964C9255
:1023900031964E175F0741F7815026503109811160
:1023A000E0CF95CE8F929F92AF92BF92CF92DF9265
:1023B000EF92FF928090A4039090A503A090A603B3
:1023C000B090A70380918B06811509F448C00E9444
:1023D000010B6B017C01C818D908EA08FB080E94B0
:1023E0000D0B282F6093A4037093A5038093A6037D
:1023F0009093A703A091F303E3EFF3E08A2F30E07B
:1024000088248A94982CA12CB12C8C189D08AE0895
:10241000BF08A31327C08093F30380916006811146
:1024200031C03091E606832F8370811519F0832F18
:102430008695869530914C013230A1F128F5311105
:102440002EC0109204016093DA037093DB03209393
:10245000DC039093DD0381E080934C0117C00E9460
:102460000D0BB7CF418D528D84169506A104B10492
:1024700020F481503F5F3296CCCF4C0D5D1D528FC2
:10248000418FF8CF80E0D6CF3330B9F0FF90EF9096
:10249000DF90CF90BF90AF909F908F9008950E9453
:1024A0002910F4CF809308018091E6068370809311
:1024B00007010E94540D83E0CFCF8091EE06811575
:1024C00051F048E050E067E170E086EE96E00E944F
:1024D000832D1092EE06C090DA03D090DB03E090DB
:1024E000DC03F090DD0380918B06811571F00E9472
:1024F000010B6C197D098E099F09603171058105F9
:10250000910520F210924C01C1CF0E940D0BF1CF2A
:10251000CF93C82F811591F08091600681110EC074
:102520000E942910109208018091E6068370809322
:1025300007010E94540D83E080934C01C093600614
:10254000CF910895AB0124E630E0BC0188E70E94FA
:102550001A2A9C0181E0232B09F080E008958091E4
:102560005A06811569F080915706811549F062E09D
:1025700070E08EEA90E00E94A2128111109257063C
:10258000089580915A068115F9F00E94010BDC0133
:10259000CB01805A9541AF4FBF4F80935306909324
:1025A0005406A0935506B0935606809157068111A4
:1025B0000BC062E070E08CEA90E00E94A2128115EC
:1025C00019F081E0809357060895CF93DF93682F29
:1025D00081E06A3019F06D3031F480E00E946513BB
:1025E000DF91CF910895809125049091260426E0F3
:1025F000FC01A1EEB2E001900D922A95E1F7603E58
:1026000008F458C026E0FC0111922A95E9F7C09120
:102610002504D091260446E050E0BE0181EE92E010
:102620000E94482D9E012F543440892B41F1C9014D
:1026300045E0969587954A95E1F741E050E0BA016B
:1026400002C0660F771F8A95E2F7CB0160915106B1
:1026500070915206862B972BB9016B5F7F4FE5E097
:1026600076956795EA95E1F702C0440F551F6A9584
:10267000E2F7842B952B90935206809351062A5FA4
:102680003F4F40912704642F70E0C9010E94722CD3
:10269000481B463010F4240F311D211572E0370716
:1026A00010F020E030E0215B3B4F30932604209374
:1026B000250496CFF6E06F9FB001112460557F4F3F
:1026C00046E050E00E943F2DA2CFCF93382FE091FB
:1026D0002504F0912604EF54F44020912704622F42
:1026E00070E0CF010E94722C281B822F311561F0FF
:1026F00066E00E94BD2CC82FC15010F4CF91089500
:1027000080E20E94E512F8CF8E0F9F2F911D811558
:1027100022E0920710F080E090E0815B9B4F909365
:10272000260480932504EACFCF93DF93EC01FE01CA
:102730008491811103C0DF91CF9108950E94E51229
:102740002196F5CF0E94941381E00E9465130895AD
:102750001F921FB61F9211248F939F93AF93BF9325
:102760008091E803811113C08091FA029091FB02DD
:10277000A091FC02B091FD024196A11DB11D809374
:10278000FA029093FB02A093FC02B093FD02BF916A
:10279000AF919F918F911F901FBE1F9018952FB7DB
:1027A000F8948091FA029091FB02A091FC02B09102
:1027B000FD022FBF0895CF93DF93EC010E94CF134A
:1027C0008C1B9D0BDF91CF910895CF93DF93809168
:1027D000D90680FD38C082FD39C08091D8068115A8
:1027E000C1F1C091D606D091D706209791F10E94F1
:1027F000CF138C1B9D0B62E370E00E94722C669FCE
:10280000C001679F900D900D112424E0880F991F3F
:102810002A95E1F79695879544E0660F771F4A95CC
:10282000E1F76C597F4F860F971F893823E1920794
:1028300010F088E893E164E670E00E94722C862F25
:10284000DF91CF91089580E991E0F5CF88EB9BE08F
:10285000F2CF84E690E0EFCF0E94CF132091DC0608
:102860003091DD06232B211521F080935D06909396
:102870005E062091DE063091DF06232B211521F024
:1028800080935B0690935C06E091B306F091B406EA
:10289000309749F082E08093DA060680F781E02DD8
:1028A0008AED96E0099508951092EF06809149010E
:1028B000813039F58091F70687FF23C0E6EBF2E01F
:1028C0008EE1DF011D928A95E9F780E090E00E9499
:1028D000520A80E090E00E94780A1092F9060E9465
:1028E000310E86E0EAEDF6E0DF011D928A95E9F708
:1028F0001092D8061092D5061092D9060E942C1478
:102900000895EEEAF2E086E0DCCF0E9454142FEF47
:1029100084E39CE0215080409040E1F700C000003B
:1029200088E19AE00FB6F894A895809360000FBEF6
:1029300090936000FFCFAAE2B0E0E1EAF4E10C94EA
:10294000952C8AEE92E0FC0101962091F100208303
:1029500022E0823F9207B9F78091EB02893009F4B7
:102960005AC0C8F4823009F4B6C0833009F485C077
:10297000813091F18091E80083FFEAC08091EA0202
:102980009091EB029A3008F0E3C0E92FF0E0E45EAA
:10299000F14D0C94DD2C8A3009F48CC08B3051F74A
:1029A0008091EA02813231F78091EE029091EF023C
:1029B000892B01F78091E800877F8093E8000E94CF
:1029C000990B81E09091EC02911101C080E080931D
:1029D00049010E945414CECF8091EA02813A51F607
:1029E0008091E800877F8093E8008091EE029091CB
:1029F000EF02892B61F060E080E090E070E00E94DF
:102A0000400B8091E8008B778093E800B3CF68E0BB
:102A100082EF92E0F3CF8091EA02813209F0AACFEF
:102A20008091EE029091EF02029708F0A3CF80917F
:102A3000E800877F8093E8008091E80082FF18C05B
:102A40009091F3008091F200029731F48091F100AF
:102A5000813011F0863021F48091F100809348019B
:102A60008091E8008B778093E8000E94990B82CFD9
:102A70008091EA038111E0CF7DCF8091EA02813A13
:102A800009F078CF8091EE029091EF02892B09F046
:102A900071CF8091E800877F8093E8008091E80003
:102AA00080FFFCCF809149018093F1008091E80084
:102AB0008E77D9CF8091EA02813209F05BCF809185
:102AC000E800877F8093E8000E94990B8091ED02D7
:102AD000809347014FCF8091EA02813A09F04ACFB3
:102AE0008091E800877F8093E8008091E80080FF74
:102AF000FCCF80914701D8CF803889F0823841F5EA
:102B00008091EE028F70873018F58093E9008091F4
:102B1000EB0085FB882780F91092E90006C08091C0
:102B2000E903880F9091E702892B9091E800977F45
:102B30009093E8008093F1001092F1008091E800FA
:102B40008E7723C0811116C08091EC02813011F183
:102B50008091E80083FF0AC08091E800877F80931E
:102B6000E8008091EB0080628093EB00AA96E3E09E
:102B70000C94B12C823061F78091EC02811589F0C0
:102B80001092E9008091E800877F8093E8000E941E
:102B9000990BDECF81E0933009F080E08093E90368
:102BA000EFCF8091EE028F702FEF280F263080F646
:102BB0008093E9002091EB0020FFE2CF933031F4C5
:102BC0008091EB0080628093EB00DACF9091EB0074
:102BD00090619093EB0021E030E0A90102C0440F26
:102BE000551F8A95E2F74093EA001092EA0080911F
:102BF000EB008860E8CF8111ABCF1091EC021F771A
:102C00008091E3008078812B8093E3008091E8003D
:102C1000877F8093E8000E94990B8091E80080FFF5
:102C2000FCCF8091E30080688093E30083E0111182
:102C300001C082E08093EA038BCF8058823008F095
:102C400087CF2091EC023091ED022C3D53E0350707
:102C500099F583E08A838AE289834FB7F894DE018D
:102C6000139620E03EE051E2E32FF0E0509357004E
:102C7000849120FF03C082958F703F5F8F708A30F0
:102C8000C8F0895C90E08D939D932F5F243161F7AC
:102C90004FBF8091E800877F8093E8006AE270E090
:102CA000CE0101960E94400B8091E8008B778093C3
:102CB000E8004ECF805DE6CF832F992783309105C2
:102CC00029F160F48130910509F476C0029709F08A
:102CD0003FCF8BE390E0EAEEF6E02DC02091EE02CC
:102CE0003091EF028132910509F45AC0829709F0C0
:102CF0002FCF2115310509F469C02130310509F0C4
:102D000027CF86EB90E0E0EFF5E015C0C9019927E9
:102D10002130B1F18230910509F43AC0892B09F0D4
:102D200017CFE7E5F7E0E4918E2F90E0E7E5F7E0D5
:102D3000009709F40DCF2091E800277F2093E80049
:102D40002091F0023091F1028217930708F49C0160
:102D500040E02115310509F03EC041113CC0809191
:102D6000E80082FDA1CF8091EA03811509F49CCF90
:102D7000853009F499CF8091E80083FFF0CF94CF9C
:102D8000E5E4F7E0E4918E2F90E0E5E4F7E0D0CFC2
:102D9000E7E3F7E0E4918E2F90E0E7E3F7E0C8CFB8
:102DA0002115310571F02130310509F0D1CE89E0CE
:102DB00090E0E5E1F7E0BFCF82E190E0E5E2F7E007
:102DC000BACF89E090E0ECEFF6E0B5CF84E490E094
:102DD000E6EAF6E0B0CF8091EA03811509F464CF0A
:102DE000853009F461CF8091E80083FD5DCF80914B
:102DF000E80082FDB4CF8091E80080FFAACF9091D7
:102E0000F3008091F2002115310519F08830910509
:102E100050F041E0089709F040E08091E8008E779B
:102E20008093E80096CF44914093F1003196215071
:102E300031090196E8CF803809F08ACE8091E80008
:102E4000877F8093E8008091E8028093F10076CE3E
:102E500081117ECE1091EC02123008F079CE809173
:102E6000E800877F8093E8001093E8020E94990BA6
:102E70001115A9F084E08093EA0342E061EC81E05F
:102E80000E94AA0C42E261EC82E00E94AA0C8091AE
:102E9000EA03843051F482E080934A0159CE809154
:102EA000E30087FDE7CF81E0E6CF81E0F5CFCF9368
:102EB000DF938091D90668E070E080FD2DC060E36B
:102EC00070E082FD29C08091D506811581F1C09105
:102ED000D606D091D706209751F180911D0190918F
:102EE0001E01809721F10E94CF138C1B9D0B62E382
:102EF00070E00E94722C669FC001679F900D900D3C
:102F0000112496958795605F7F4F680F791F613216
:102F1000710510F060E270E088EE93E00E94722C80
:102F200070931E0160931D01DF91CF91089560E1C0
:102F300070E0F2CFCF93C82F611509F45CC0809187
:102F4000D6069091D706892B31F40E94CF13909327
:102F5000D7068093D606E3E3EC0FE33150F4F0E0BC
:102F6000EA5DF14D0C94DD2C0E94E5138195809370
:102F7000DD060E942C14CF9108950E94E513F7CF2F
:102F80000E94E51381958093DC06F3CF0E94E51340
:102F9000FACF0E94571781E08093DE06EACF0E94A5
:102FA00057178FEFF9CF0E9457178FEF8093DF06E7
:102FB000E0CF0E94571781E0F9CF2C2F215D330B12
:102FC000C90121E030E001C0220F8A95EAF7809123
:102FD000DB06822B8093DB06CCCF8091D906816003
:102FE0008093D906C6CF8091D9068260F9CF8091AF
:102FF000D9068460F5CF4091DC068D3C79F4809150
:10300000DD0687FF11C01092DD06411579F410929C
:10301000D8061092D7061092D60608C08E3C81F4CE
:103020008091DD0618167CF3411581F08091DE0653
:103030009091DF06892B81119CCF1092D50699CFF4
:103040008F3C41F447FFF0CF1092DC068091DD0603
:103050008115DCCF803D19F41416B4F3E5CF8091CF
:10306000DE06C93D29F41816FCF61092DE06DCCF08
:10307000CA3D19F487FFD8CFF8CF8091DF06CB3D4A
:1030800029F487FFD1CF1092DF06CECFCC3D19F4C3
:103090001816CCF3C9CF8FE28C0F8830A0F46C2FB8
:1030A000615D770BCB0121E030E0B90102C0660F12
:1030B000771F8A95E2F7CB0180959091DB068923F3
:1030C0008093DB06B1CF8091D9068E7FCD3D59F03C
:1030D0008091D9068D7FCE3D31F0CF3D09F0A4CF50
:1030E0008091D9068B7F8093D9069ECFCF93C82F2E
:1030F0008115D1F08CEF8C0F813AA0F580914901B8
:10310000813021F48091F70687FD10C0EEEAF2E0ED
:103110008191C81709F122E0E43BF207C9F78C2F2F
:103120000E949E0A0E94310ECF910895EC2FE695E1
:10313000E695E695F0E0EC54FD4F828190E04C2F4F
:10314000477021E030E002C0220F331F4A95E2F7BA
:1031500082239323892B19F38C2F0E94D20A0E9479
:10316000310EDDCF80E28C0F883068F4C77081E0CB
:1031700090E001C0880FCA95EAF7C091EF06C82B0E
:10318000C093EF06CFCF8BE58C0F833038F42C2F14
:103190002452330BC9010E94520AC6CFE8E5EC0F56
:1031A000EB3150F4F0E0EE0FFF1FEC58FD4F808143
:1031B00091810E94780AB8CF83E38C0F833108F0A5
:1031C000B3CF61E08C2F0E949A17AECF811581F1A9
:1031D0009CEF980F913A28F40E94D20A0E94310E77
:1031E000089590E2980F983050F4877091E001C0F4
:1031F000990F8A95EAF7892F0E945106EFCF9BE538
:10320000980F933028F480E090E00E94520A0895CD
:1032100098E5980F9B3128F480E090E00E94780AAE
:10322000089593E3980F933118F460E00E949A1781
:103230000895EF92FF920F931F93CF93DF93C62FC2
:10324000D42F122F8115A9F06093E4060E94CF13AA
:103250009093E0028093DF02C77081E001C0880F85
:10326000CA95EAF70E94830ECDB7DEB7E6E00C946C
:10327000AE2C8091E406681335C0E090DF02F09038
:10328000E0020E94CF138E199F09883C910550F5EA
:1032900000E20D0FCD17A9F0C770FF24F3948F2D16
:1032A00001C0880FCA95EAF70E948D0E083048F4D5
:1032B0008D2F877001C0FF0C8A95EAF78F2D0E9431
:1032C000830E812F0E947618812F0E94E618083005
:1032D00058F6D77081E001C0880FDA95EAF70E94AE
:1032E0008D0EC2CFC77081E001C0880FCA95EAF782
:1032F000F6CFA0E0B0E0EFE7F9E10C94902C7C0170
:10330000FC018481811509F475C061E0C7010E9448
:103310009E08EC01F7018581811509F47EC4918135
:103320009093E30690819093E20690E290934B0194
:10333000D093E106C093E0069E0130522115304241
:1033400020F5F7019681903128F0FE01FF27ED333B
:10335000F10578F11092E4069E01305723323105D1
:1033600008F066C484E090E00E947D2D9093F806FA
:103370008093F706FE01E150F047E232F10508F0D4
:1033800063C0E75CF14D0C94DD2C9E013054211597
:103390003041B8F29E013A9521153F41B0F29E01AD
:1033A000205A324520323105A8F2CD33D10530F410
:1033B000FE01E259F54FE491E0934B01FE01E85123
:1033C000FC47E730F10530F62FC426E241EE61EE0E
:1033D0000E9419198091F6068770811559F0F7013E
:1033E0008581811539F08091F80682FF03C082E063
:1033F0000E941206CDB7DEB7E8E00C94AC2C27E2B1
:1034000045EE65EEE5CF26E241EE60EEE1CF27E244
:1034100045EE64EEDDCF26E241EE62EED9CF27E243
:1034200045EE66EED5CF28E241E0EBCFC6312CE782
:10343000D20709F0F2C08091E506811509F4BEC0FB
:1034400085E30E94D20A08C48091F70681608093C8
:10345000F7066091F7067091F80684E090E00E940C
:10346000B12D0E945414B6CF8091F80688608093E5
:10347000F806EFCF8091F7068260E9CF8091F706DA
:103480008460E5CF8091F7068860E1CF8091F806EF
:103490008160EDCF8091F8068260E9CF8091F706D8
:1034A0008061D5CF8091F7068062D1CF8091F706F9
:1034B0008064CDCF0E9454148091F7068068C7CFF6
:1034C0008091F7068C60C3CF8091F8068360CFCFE0
:1034D0008091F7068E7FBBCF8091F806877FC7CF9C
:1034E0008091F7068D7FB3CF8091F7068B7FAFCFAA
:1034F0008091F706877FABCF8091F8068E7FB7CF9C
:103500008091F8068D7FB3CF8091F7068F7E9FCF95
:103510008091F7068F7D9BCF8091F7068F7B97CFA9
:103520000E9454148091F7068F7791CF8091F7060F
:10353000837F8DCF8091F8068C7F99CF8091F7069D
:10354000992782FF939590FB82F990FB83F97FCFB7
:103550008091F806982F909590FB80F990FB81F967
:1035600086CF9091F706892F8F7B96FF80646FCF6F
:103570000E9454149091F706892F97FB87F9805881
:1035800066CF61E08EE090E00E94932D62CF60E014
:10359000F9CF9091F706892F8F7E94FF806157CFE6
:1035A0009091F706892F8E7F90FF816050CF909188
:1035B000F806892F877F93FF886059CF89E241CF32
:1035C0009272FE01E052F847EB30F10508F06EC050
:1035D000E55AF14D0C94DD2C0E94FC09FBCE9115AF
:1035E00009F449C00E94440CF5CE911509F449C074
:1035F0000E946C0CEFCE911509F449C00E94830C17
:10360000E9CE911509F449C00E949D0CE3CE9115B5
:1036100009F449C00E94180ADDCE9091EF0692721B
:10362000FE01E054F847ED30F10508F03FC0EA59DB
:10363000F14D0C94DD2C8091E6068370811102C05F
:1036400010924C018091E6068C7F81608093E606A3
:103650008091EE0681608093EE06BCCE8091E606F6
:103660008370811110924C018091E6068C7FEECF21
:10367000911509F4B7CF0E94390CACCE911509F41D
:10368000B7CF0E94620CA6CE911509F4B7CF0E9465
:10369000760CA0CE911509F4B7CF0E94900C9ACE6B
:1036A000911509F4B7CF0E940A0A94CE9E01205EBC
:1036B000324520323105A8F481112AC0CF7181E052
:1036C00090E0FC0102C0EE0FFF1FCA95E2F7EF0188
:1036D0006E2F83E090E00E94932DCE010E9474052E
:1036E00079CE8115A9F0CA35FCE7DF0709F483C05C
:1036F00008F05BC0C1303CE7D30709F47AC0C3309F
:103700008CE7D80709F46FC0C115DC4709F45EC027
:10371000F701858100811181811509F470C0C8010C
:103720000E946A08C82F682FC8010E94A005B8012E
:103730008C2F0E9459060E946707D82FC92FF701C6
:10374000D580C680C2948FE0C8228091F60687702B
:103750008115F9F00D2DD114E9F0892F807F803487
:1037600061F080E28D0F8830A0F0892F807E80325A
:1037700021F4D23070F0C11461F08091F80682FF1C
:1037800008C082E00E9412068091F606877001E070
:10379000811100E0EC2FE295EF70C03C08F095C07D
:1037A000F0E0ED58F14D0C94DD2CCB35ECE7DE0765
:1037B00021F18091F806002482FF0394802DCC35FE
:1037C000DC4709F0A5CF0E941A0EA2CF0E94541424
:1037D0002FEF34E38CE0215030408040E1F700C00F
:1037E00000000E942F0B6FEF7FEF80E090E00E94BF
:1037F000B12D0E94851481E0E6CF80E0E4CFC801BE
:103800000E94D505C82F93CF1C2F1F70C03110F018
:103810001295107FD114B9F0111569F080E28D0F67
:10382000883010F0D11109C08091EF06812B809370
:10383000EF060E94310E8D2F40C08091F906812B3A
:103840008093F906F6CF8D2F0E94E6181115E9F145
:1038500080E28D0F883010F0D11104C0812F0E94BA
:10386000510606C010958091F90681238093F906D0
:103870000E94310E2AC01C2F1F70C07FC03211F071
:103880001295107FD11549F0D13009F468C0D114D8
:1038900009F474C0C114B1F1CECF8091F80682FD55
:1038A0002DC0D11469F0111539F08091EF06812BEC
:1038B0008093EF060E94310E80E00E94761805C0CA
:1038C00080E00E94E6181111C9CF011509F4C0C0AB
:1038D0008091F60680FDBCC0F7011582869586951D
:1038E00086950E947E05C7010E9479198091F6068F
:1038F0008695869586950E948E05AAC0D11499F06A
:10390000C11004C0812F0E94830EDFCFF1E0CF12DF
:10391000DCCF8091F006912F98231917B1F2812BFB
:103920008093F006D2CFC110D0CF812F0E948D0E90
:103930009091F006812F8923811529F0812F8095A0
:1039400089238093F0068091F106912F9823911599
:1039500009F4BBCF109518231093F106B6CFD114FC
:1039600029F026E0C21608F0B0CFCCCF35E0C31660
:1039700008F0ABCF812F0E948D0EA7CFC114D1F3D9
:10398000D93349F48FEF97EEE3E081509040E04067
:10399000E1F700C000008D2F0E94E61896CF8C2F13
:1039A000869586958370811569F0813009F08DCFF9
:1039B0008D2F9C2F9370D11002C080E090E00E9468
:1039C000780A83CF8D2F9C2F9370D11002C080E096
:1039D00090E00E94520A79CF6D2D8D2F0E949A1788
:1039E00074CF8C2F8370811146C0D1102FC04D2F02
:1039F000429546954770440F440F2D2F2F7030E0AD
:103A0000042E02C0220F331F0A94E2F780E090E0F8
:103A1000D4FF09C08FE090E002C0880F991F4A953B
:103A2000E2F780959095C695C695C370C230D1F0E7
:103A3000C330A9F04091F2065091F306C13069F00D
:103A4000822B932B842395230E9474050E94410AA4
:103A500060E0C7010E949E08CDCC242B352B822B21
:103A6000932BF2CF822B932B2091F2063091F30609
:103A700082279327E9CFD11491F1C0FFE7CF4D2FD3
:103A8000429546954770440F440F2D2F2F7030E01C
:103A9000042E02C0220F331F0A94E2F780E090E068
:103AA000D4FF09C08FE090E002C0880F991F4A95AB
:103AB000E2F780959095C695C695C370C230B9F06F
:103AC000C33091F04091F4065091F506C13051F0A9
:103AD000822B932B842395230E947905B7CF8230C4
:103AE00070F6B4CF242B352B822B932BF5CF822B62
:103AF000932B2091F4063091F50682279327ECCF83
:103B0000CF70D11439F08C2F0E947E058D2F0E942A
:103B1000830E9CCF8D2F0E948D0E8C2F0E948E05C0
:103B200095CFD23FB1F170F4D03FC9F0D13F91F0C1
:103B3000D11409F45EC0C11409F458C08D2F0E943D
:103B4000761884CFD33F61F1D43F91F79091F80676
:103B500092FD34C08C2F8F71D11401F31EC0D1148B
:103B6000A9F0F5E0CF1608F071CFCF7181E090E0B9
:103B70009C0102C0220F331FCA95E2F7E901809130
:103B8000F4069091F50682279D27A6CF36E0C3164E
:103B9000EACF8C2F8F71D110C1CF0E947E0556CFF6
:103BA00080E090E0D11409F497CFCF7181E090E0EC
:103BB00002C0880F991FCA95E2F78ECFD11461F029
:103BC0008C2F8F7192FFE9CF982F990F990F990F32
:103BD00093609093F606E1CF81E00E94120682E0A6
:103BE000C81608F433CF0E94120630CF8C2F8F7185
:103BF000D4CFC11479F0D93349F49FEFE7EEF3E065
:103C00009150E040F040E1F700C000008D2F0E948D
:103C1000E6181CCF8C2F8F7181CFFE01E851FC4735
:103C2000E730F10508F002CCE158F14D0C94DD2CA1
:103C30009091EF06C631FCE7DF0709F0C1CC9A7A14
:103C400081E0911101C080E08093E50685E3911148
:103C500001C089E20E949E0A0E94310EBBCB809176
:103C60003A07803178F480913907811559F0E09155
:103C7000FB062091FA06309135074091340757E052
:103C80002E1301C008956E2F70E05E9FF001112485
:103C9000DF01A450B94F14968C911497811561F1EE
:103CA00011968C911197831327C08C91841324C093
:103CB00015968C91159781111FC012968D919C912C
:103CC000A0913607B09137078A1B9B0B883C910562
:103CD00098F480913A078F70806180933A07EE5F85
:103CE000F84F80818F708061808384E397E00E9429
:103CF00079190E9408060895FB013196E770C0CF3C
:103D0000ADE0B0E0E6E8FEE10C948B2C8C0186E09F
:103D1000F801DE01189601900D928A95E1F7F801FD
:103D2000F580C48084E3882E87E0982E7090380751
:103D3000711020C0C114D9F0F11409F41CC1C801DC
:103D40000E94CD08811509F416C187E0F801D4015D
:103D500001900D928A95E1F7F1E0CF1206C08091B3
:103D60003407909135070E94BE080E942F1EFF2441
:103D7000F39454C0E080A280B380D0903907809142
:103D80003607909137079501281B390BD11409F498
:103D9000BAC0283C310508F090C0C11441F390919D
:103DA0003507C18080913A07803108F058C0C912A8
:103DB00014C0909134079E1110C0F1104AC08F704A
:103DC000806180933A0784E397E00E94791980919B
:103DD0003A07F8018683F12C21C0F1103AC040E087
:103DE0006C2D8E2D0E94350D40E06C2D8E2D0E9485
:103DF000350DF82E8111EFCF888599850E94BE0878
:103E0000292F22952F70903470F49F702230A0F0EB
:103E10009115B1F0F8019681903190F48F2D2D9687
:103E2000EDE00C94A72C2A5F2F70223068F0C801B7
:103E30000E947919FD2CF2CF911511F0811571F3C3
:103E4000805E883058F3F3CF803F40F3815F83304A
:103E5000F9CF80913A07816080933A07BCCFC912AD
:103E600007C0909134079E1103C0F11409F46CC08F
:103E7000C8010E94CD08811509F47DC0F11409F430
:103E80007AC080913A07803278F0209134073091DF
:103E900035073A832983BC82AB827D821E828F8361
:103EA000CE0101960E94791987E0F801A4E3B7E0FA
:103EB00001900D928A95E1F758CF80913A078031B1
:103EC00050F484E397E00E94791987E0F40111929D
:103ED0008A95E9F780CFC11409F449CF20913507BD
:103EE00091812913C5CF909134079E11C1CFF11054
:103EF000BFCF8683C8010E94791987E0F40111922F
:103F00008A95E9F734CF283C3105F8F6C11409F455
:103F10002ECFF11481F1909135078181981321C042
:103F2000809134078E111DC080913A0780FD10C02A
:103F3000803170F08683807F803F39F08681982FB2
:103F4000907F905F8F70892B8683C8010E947919BA
:103F500087E0F801A4E3B7E001900D928A95E1F7BC
:103F600006CFC8010E94CD0881119ECF80913A07EB
:103F7000816080933A07C8010E947919F8CEABE1BD
:103F8000B0E0E5ECFFE10C94942C4E8B5F8B688FD6
:103F9000798F8A8F192F9B8F91111092F9061D8AA4
:103FA00086E0FE017696DE011F9601900D928A95BD
:103FB000E1F70A8D011561F00B8B1C8B61E0CE01DE
:103FC0000F960E949E0861E0CE010F960E949E0807
:103FD0000B8B1C8B87E0FE013F96DE01189601904B
:103FE0000D928A95E1F7CE0108960E94801E8111FC
:103FF00028C02091FA063091FB0687E0FE01389632
:10400000DE01119601900D928A95E1F78C8581155C
:10401000C1F0822F90E00196877099273817190612
:10402000D9F097E0929FD0011124A450B94FFE011E
:10403000319601900D929A95E1F78093FA060E94CD
:10404000080617E08091FB069091FA06891312C0CA
:104050006B96E4E00C94B02C0E9454141092FA0673
:104060001092FB0687E0E4E3F7E0DF011D928A95FA
:10407000E9F7E7CF189FC00111248450994F0E949F
:10408000801E811529F38091FB0690E001968770D0
:1040900099278093FB06D6CFA6E0B0E0E2E5F0E2F8
:1040A0000C94942C0E94CF138C01809191069091D6
:1040B00092068017910779F019821A820E94CF1315
:1040C000BC0149815A8180E090E00E94BF1F10939B
:1040D0009206009391062696E4E00C94B02CACE096
:1040E000B0E0E5E7F0E20C94872CFE01319688E021
:1040F000DF011D928A95E9F788E5E82E81E0F82E28
:104100008F019CE5692E91E0792E2F01AA24A394BA
:10411000B12C32E6832E31E0932EF70181917F019D
:104120008F3F09F43EC0F894E82FE295EF70F0E07D
:1041300021A18F70A50102C0440F551F8A95E2F797
:10414000CA01922F982B91A392A18095892382A3D3
:10415000789400C0ECE5F1E031E0312C21912F3F63
:1041600079F0A22FA295AF70A05EB0E08C9190E0A4
:104170002F7002C0959587952A95E2F780FF88C039
:1041800080E0382A330F8E169F0641F7F70182919F
:104190008F3F11F00E94FB0850EA5A95F1F7D801C1
:1041A0003C920F5F1F4F6E147F0409F0B6CF48E0BA
:1041B00050E0B2018EED93E00E94482D6C01892BF6
:1041C00041F088E0F201AEEDB3E001900D928A95E6
:1041D000E1F70091E70310E005511C4FC114D10431
:1041E00009F458C081E08093DD020E94CF139093C0
:1041F000DC028093DB0280918B06811509F4A5C057
:104200007E01B9E0EB0EF11C84E0F70111928A9572
:10421000E9F78091DE028A3008F060C043E85FE091
:10422000B701C8010E94E00D811509F47CC042E588
:104230005FE0B701C8010E94E00D811509F473C069
:1042400044E95EE0B701C8010E94E00D811509F460
:104250006AC041E65FE0B701C8010E94E00D811528
:1042600009F461C01092DE028091E60390E044E020
:1042700050E0B70185519C4F0E94482D21E02093CA
:10428000DA02892B09F041C02C96E1E10C94A32CB1
:10429000832F77CF8091DD02811509F4ACCFE090B8
:1042A000DB02F090DC020E94CF138E199F09059764
:1042B00008F4A1CF44E050E06EED73E0C8010E9425
:1042C000482D892B41F084E0EEEDF3E0D801019018
:1042D0000D928A95E1F71092DD028DCFC090D80241
:1042E000D090D9020E94CF138C199D09843F914030
:1042F00008F094CF8091DA02811531F284E0D70181
:104300001D928A95E9F71092DA02E091E603F0E057
:10431000E551FC4F89859A85AB85BC858083918367
:10432000A283B383B1CF8091DE028F3F39F40E9424
:10433000CF139093D9028093D802DCCF8F5F809304
:10434000DE028A3008F490CFF2CFE090E603F12C41
:10435000F701E551FC4F7F01F80180819181A28135
:10436000B3818093760690937706A0937806B093F6
:10437000790686E796E00E94080C80937506809186
:104380007A0690917B06A0917C06B0917D06F7019C
:1043900080839183A283B383C0907E06D0907F06F2
:1043A000E0908006F09081068091D4029091D50231
:1043B000A091D602B091D702C816D906EA06FB062C
:1043C000B1F0C092D402D092D502E092D602F0921F
:1043D000D7020E94010BC61AD70AE80AF90AC0924E
:1043E0008D06D0928E06E0928F06F092900688E0BD
:1043F000E2E8F6E0A6EEB6E001900D928A95E1F7CC
:1044000080918A060E9488123FCFCDB7DEB72E97E3
:104410000FB6F894DEBF0FBECDBF85B7806885BFED
:1044200085B7806885BF84B7877F84BF0FB6F8944F
:10443000A895809160008861809360001092600070
:104440000FBE80E890E00FB6F894809361009093DF
:1044500061000FBE81E080934A0189EF98E090935C
:10446000AB028093AA020E94E90B0E94DA0C8091B1
:10447000E20084608093E20078948091EA038115E1
:1044800099F08091E9001091EC008F701795112739
:104490001795182B1092E9008091E80083FD0E9487
:1044A0009B141F701093E90082E084BD93E095BDDA
:1044B0009AEF97BD80936E0010928D0610928E0633
:1044C00010928F06109290068091D80080618093A0
:1044D000D8002AE12A95F1F700C08091D900182F61
:1044E000117080FD04C00E94E90B1092EA03109342
:1044F0008B0681E0812780938C068093090111113E
:104500000E94102B809109018091090191E0892777
:10451000880F880F8093E70394E0981B9093E6033D
:1045200084E90E94FB0886E60E94FB0887E90E9456
:10453000FB0886EC0E94FB080CE511E0D8018D9188
:104540008D018F3F11F00E94FB08B1E002361B077E
:10455000A9F788E0EBEEF3E0DF01282F1D922A9502
:10456000E9F7EEEDF3E0DF011D928A95E9F780E0CF
:1045700090E00E947D2D853E9E4F09F461C065EE5E
:104580007EEF80E090E00E94B12D60E082E090E05C
:104590000E94932D81E090E09093F3068093F206C1
:1045A00061E083E090E00E94932D60E074E184E09C
:1045B00090E00E94B12D60E086E090E00E94932D93
:1045C00060E087E090E00E94932D40E050E0BA0167
:1045D00088E090E00E94A52D60E083E290E00E94D8
:1045E000932D60E08CE090E00E94932D60E08DE0E0
:1045F00090E00E94932D19821A821B821C821D82D8
:104600001E821F82188648E050E067E170E0CE010C
:1046100001960E94832D40E050E0BA018FE190E0C6
:104620000E94A52D40E050E0BA018FE090E00E948A
:10463000A52D40E050E0BA0183E190E00E94A52D55
:1046400082E090E00E94752D80931C0484E090E04D
:104650000E947D2D9093F8068093F7060E946F20AC
:10466000EFEFF6E721E0E150F0402040E1F700C035
:1046700000000E946F20E0918C0611E0E127EE0F10
:10468000EE0FF0E0E551FC4F808181FF08C06FEF35
:104690007FEF80E090E00E94B12D0E942F0B83E01D
:1046A00090E00E94752D90E00E9474050E94260AF9
:1046B0001092F30340E150E06FEF70E08CE094E083
:1046C0000E945E2D1093EE0648E050E067E170E036
:1046D00086EE96E00E94652D1092EE068091E60629
:1046E0008430F8F485E08093E60680914D01909146
:1046F0004E01A0914F018093E7069093E806A093A6
:10470000E9068FE78093EA068FEF8093EB0648E097
:1047100050E067E170E086EE96E00E94832D1092F3
:10472000EE0680918B0691E08927880F80934F06D3
:1047300080E8809327040E9495296BE070E082E76F
:1047400098E00E94A212811509F43FC080914F06A3
:1047500065E070E081FD19C18DE698E00E94A2122B
:10476000811599F16DE070E08BE598E00E94A2124E
:10477000811559F10E94010BDC01CB01805A954152
:10478000AF4FBF4F8093530690935406A0935506A6
:10479000B0935606EFE4F4E080E092E0DF019C0184
:1047A0001D9221503040E1F7F0932604E093250458
:1047B0008FEF9FEF909352068093510681E0809394
:1047C0005A06809357061092500680918B068111ED
:1047D00002C00E94132B8AE091E09093B40680936C
:1047E000B306CE0101968D879E878091EA0310E47F
:1047F00000E1B2E1FB2E853009F403C10E946F2075
:10480000ADE1B4E0BA87A987EBEEF3E0FC87EB8774
:10481000DF01EDE1F4E091918D9124E0E532F207C2
:1048200009F4FCC09817B9F320908B06A2E6AA2ED3
:10483000A1E0BA2E00E0AB85BC857D90BC87AB873C
:10484000E985FA853190FA87E987371409F491C030
:1048500037244501512C44244394832D8421811510
:1048600009F47CC0172D14212114A1F059820A8368
:104870000E94CF139C838B83F1E0FD8391E01111A3
:1048800001C090E09E8349815A816B817C818D813A
:104890000E94BF1F111539F0D4018C9110E08F3F99
:1048A00011F0682E11E0E12EF12C8091F303810FBD
:1048B0009927991F09976CF178E0C72ED12CCE1853
:1048C000DF08B7016C507C4FA60184EF93E00E9493
:1048D000552DB70164507C4FA6018CEF93E00E94E8
:1048E000552DA601440F551FB701660F771F645F52
:1048F0007B4F8CE094E00E94552DB7016C5F7B4F9D
:10490000A60184E094E00E94552D88E0811B8093ED
:10491000F303111519F14091F303862D90E0242F34
:1049200030E0F901ED50FC4FDC01AA0FBB1FAE5681
:10493000BE4F5C915183880F991FDC01AE59BE4F69
:10494000D1968C918187618AF901EE0FFF1FED509E
:10495000FC4F128E118E4F5F4093F3035394440C1F
:10496000BFEF8B1A9B0AE6E05E1277CFE985FA85E6
:1049700072920F5FF6E0AF0EB11C083009F05BCF0A
:104980000E940D0BDD24D3944EC088E698E0E6CE5D
:104990008091EA03843051F10E94D21181E00E949B
:1049A00088120E94AF121092E80388E190E00FB6DF
:1049B000F894A895809360000FBE1093600083B7B1
:1049C000817F846083BF83B7816083BF789488953B
:1049D00083B78E7F83BF0FB6F894A895809160004F
:1049E000886180936000109260000FBE0E946F206B
:1049F000EBEEF3E081918111D1C293E0E33FF9073F
:104A0000C9F78091EA03853009F4C2CF0E9454149B
:104A10000E94410A80E00E948812F0CE981304CFD1
:104A20000E944C20D12C0E94D21180915A068115EF
:104A300009F4AFC000915806109159060E94CF1397
:104A4000801B910BC29708F484C00E94CF139093EF
:104A50005906809358068FE494E09093260480933F
:104A6000250480918B06811509F4B2C186EE98E089
:104A70000E9494134091F4063091F506832F90E044
:104A800028E0311103C020E0842F932FAC01E4E033
:104A900056954795EA95E1F74115510511F02C5FC0
:104AA000CA01AC0156954795569547954115510554
:104AB00011F02E5FCA0196958795820F823009F416
:104AC0004CC108F042C1811145C18EED98E00E94B1
:104AD000A2138091E306805D0E94E51283EC98E0CA
:104AE0000E9494138091E206805D0E94E5128FEB94
:104AF00098E00E9494138090E0069090E1068091E7
:104B00001401909115018816990609F02CC1809125
:104B10002E04803209F027C1E8E2F4E08F01819190
:104B20008032E1F3F80101900020E9F79F01215064
:104B3000310979010E151F0508F444C18DEB98E089
:104B40000E94941380914B010E94E51281E00E9423
:104B500065138091510690915206892B09F03DC151
:104B6000809157068115A9F00E94010B0091530610
:104B7000109154062091550630915606601B710B1A
:104B8000820B930B6F3F7F4F8F4F9F4710F40E9414
:104B9000AF12D1100E94C11286E0EAEDF6E0AD85B9
:104BA000BE8501900D928A95E1F7B090DB06D0901A
:104BB000DC06F090DD06C090DE06E090DF06109285
:104BC000DC061092DD061092DE061092DF068F2DB5
:104BD0008D29811509F441C000915D0610915E0692
:104BE0000E94CF139C01201B310B9091D806911588
:104BF00009F4D0C12B30310580F19F3F19F09F5F40
:104C00009093D806D11459F00E94E51391E01D1439
:104C10000CF09FEF899F802D11248093DC06F11406
:104C200059F00E94E51391E01F140CF09FEF899F4B
:104C3000802D11248093DD068091DC06811569F0BA
:104C40001091DD06111549F00E94330A8093DC06AD
:104C5000812F0E94330A8093DD068C2D8E298115C9
:104C600009F43FC000915B0610915C060E94CF13CF
:104C70009C01201B310B9091D506911509F485C13B
:104C800040911D0150911E014217530750F59F3F5F
:104C900019F09F5F9093D506C11441F00E945717F9
:104CA00081E01C140CF08FEF8093DE06E11441F0DC
:104CB0000E94571781E01E140CF08FEF8093DF06DF
:104CC0008091DE06811569F01091DF06111549F01B
:104CD0000E94330A8093DE06812F0E94330A80935C
:104CE000DF068091DB06B81219C08091DC068115C1
:104CF00011F08D1113C02091DD06211511F0F21273
:104D00000DC09091DF06911511F0E91207C03091A6
:104D1000DE06311103C0822B892B81110E942C14D5
:104D200086E0ED85FE85AAEDB6E001900D928A95AC
:104D3000E1F70E94410A90915F06891709F455CD69
:104D400080935F060E94010B50CD833049F085ECC3
:104D500098E0BDCE88ED98E0BACE82ED98E0B7CE6F
:104D60008BEC98E0B4CE909215018092140180E211
:104D700080932E04A12CB12C10922D045DE2E52E1F
:104D800054E0F52E00E010E0C501B4012AE030E067
:104D900040E050E00E94E92D605D603341F4011570
:104DA000110529F089288A288B2809F460E2D701A7
:104DB0006E937D0149015A010F5F1F4F05301105A8
:104DC00019F7AACED8018D918D010E94E512B2CEBD
:104DD0008DE798E00E949413BCCE80915A0681150D
:104DE00009F4BECE809150068111BACE0E94C11244
:104DF00020915106309152062115310509F4B0CEAB
:104E000010E0812F90E0EE24E394F12C012E02C0FB
:104E1000EE0CFF1C0A94E2F7A9014E215F21452BFD
:104E200011F41F5FEECF20914F0620FF9BC0912F02
:104E3000990F990F990F37E0390F80E023E0909395
:104E4000180180931B013093190120931C0124E663
:104E500030E047E050E066E171E088E70E94CB294E
:104E6000892B09F07DCEB0E21B9FA0011124809117
:104E70004F0680FF83C0EFE2F4E080E2DF011D9285
:104E80008A95E9F7E8E3F2E0FA87E98704E312E0BC
:104E90008CE3282E82E0382E97E0992EA985BA85DA
:104EA0006D91BA87A987F80181918F01840F952FA1
:104EB000911D9C01215B3B4F2901E62FF0E0E15D54
:104EC000FB4F20E030E0792C721ACC24C394022EE0
:104ED00001C0CC0C0A94EAF7520190E0D5018D9103
:104EE0005D018C21672D691B677070E0B82F062E5D
:104EF00001C0BB0F0A94EAF771956195710967705B
:104F0000772701C086956A95EAF78B2B6081862BFF
:104F100080839F5F983011F72F5F3F4F3196283085
:104F2000310589F6E985FA852E163F0609F0B6CFD8
:104F300004E610E020E230E04FE254E060E488E76D
:104F40000E94652A892B09F00BCEE094F0948091A1
:104F50005106909152068E219F2190935206809384
:104F60005106FECD9695879596958795282F912F7A
:104F70009295990F90763FE1390F61CF415B5B4F7E
:104F800004E610E020E230E0D9CF2B30310508F004
:104F900080CEA7CE232B09F032CE5FCE8091E903DD
:104FA000811509F42ECD09BDF9BC09B400FEFDCF71
:104FB0008091D8008F7D8093D8008091E00082603E
:104FC0008093E0008091E00081FDFCCF0E945414AA
:104FD00018CD78941F921FB61F9211248F939F9320
:104FE000AF93BF938091FA029091FB02A091FC02D3
:104FF000B091FD020196A11DB11D8093FA0290931C
:10500000FB02A093FC02B093FD02BF91AF919F9170
:105010008F911F901FBE1F9018951F920F920FB671
:105020000F9211242F933F934F935F936F937F932E
:105030008F939F93AF93BF93EF93FF938091E10082
:1050400082FF09C08091E20082FF05C08091E100EB
:105050008B7F8093E1008091DA0080FF24C08091F3
:10506000D80080FF20C08091DA008E7F8093DA0024
:105070008091D90080FFA9C080E189BD82E189BD0E
:1050800009B400FEFDCF81E08093EA038091E9023C
:10509000811109C00E94E90B0E94DA0C8091E200A4
:1050A00084608093E2008091E10080FF1AC08091CB
:1050B000E20080FF16C08091E2008E7F8093E200C4
:1050C0008091E20080618093E2008091D80080624C
:1050D0008093D80019BC85E08093EA0383E0809335
:1050E0004A018091E10084FF2FC08091E20084FF9B
:1050F0002BC080E189BD82E189BD09B400FEFDCFEE
:105100008091D8008F7D8093D8008091E1008F7EC0
:105110008093E1008091E2008F7E8093E200809195
:10512000E20081608093E2008091E802811509F439
:1051300052C084E08093EA038091EA03843009F04E
:1051400052C082E080934A018091E10083FF2CC02D
:105150008091E20083FF28C08091E100877F8093E7
:10516000E10082E08093EA031092E8028091E1007E
:105170008E7F8093E1008091E2008E7F8093E20039
:105180008091E20080618093E20042E060E080E094
:105190000E94AA0C8091F00088608093F00081E06A
:1051A00080934A0180934901FF91EF91BF91AF91A4
:1051B0009F918F917F916F915F914F913F912F912F
:1051C0000F900FBE0F901F90189519BC1092EA0314
:1051D0001092E90268CF8091E30087FF02C083E06C
:1051E000A9CF81E0A7CF81E0ADCF1F920F920FB67C
:1051F0000F921124EF92FF920F931F932F933F93DF
:105200004F935F936F937F938F939F93AF93BF93CE
:10521000CF93EF93FF9309EE10E0F8018081C091E6
:10522000EC008F70C795CC27C795C82B108280EFF4
:10523000E82EF12CF7018081877F808378940E948B
:105240009B14F8011082F701808188608083CF7001
:10525000F801C083FF91EF91CF91BF91AF919F91E2
:105260008F917F916F915F914F913F912F911F91FE
:105270000F91FF90EF900F900FBE0F901F90189519
:10528000FF920F931F93CF93DF93182FEB01109290
:10529000BC0084EA8093BC000E94CF13082FF92E33
:1052A0008091BC0087FF28C08091B900887F88303A
:1052B00029F08091B900887F8031A1F51093BB005F
:1052C00084E88093BC000E94CF13182F092F80918F
:1052D000BC0087FF1FC02091B900287F80E090E0CC
:1052E000283199F081E090E0203411F480E090E0E2
:1052F00091958195910909C0802F9F2D0E94DB1304
:10530000C817D90768F68EEF9FEFCDB7DEB7E5E097
:105310000C94AF2C812F902F0E94DB13C817D90754
:10532000B0F6F1CF8FEF9FEFF0CF1092B9008CE085
:105330008093B80008950F931F93CF93DF93EB01F1
:105340008093BB0084E88093BC000E94CF13182F89
:10535000092F8091BC0087FF11C02091B900287FE0
:1053600081E090E0283211F480E090E09195819501
:105370009109DF91CF911F910F910895CF3FDC07E5
:1053800041F3812F902F0E94DB13C817D90708F72C
:105390008EEF9FEFEECFA0E0B0E0E1EDF9E20C94EC
:1053A0008B2C782EB62EA72E6A01E9010E94CF130E
:1053B0004C01C431D10528F1CF3FDC0731F1CE01DA
:1053C00064E170E00E94722CF62EE72E6F2D7E2D88
:1053D000872D0E9440298C01892BD1F4EB2CFA2CCB
:1053E000CE0CDF1CEC14FD0419F001151105D1F0F1
:1053F00084E98093BC00C801CDB7DEB7EDE00C9422
:10540000A72CFF24F394E12CE1CF85E0F82EFBCF0D
:10541000CF3FDC07D9F2C4010E94DB13C817D907BC
:10542000A8F6DCCFBE01F70181917F010E949B2984
:105430008C01D8CFA0E0B0E0E0E2FAE20C948B2C33
:10544000782EB62EA72E6A0189010E94CF134C0137
:105450000431110518F10F3F100719F1C80164E17B
:1054600070E00E94722CEB01BE01872D0E94402942
:105470007C01892BC1F4CB2DDA2DCC0EDD1ECC1591
:10548000DD0519F0E114F104C1F084E98093BC005A
:10549000C701CDB7DEB7EDE00C94A72CC1E0D0E09A
:1054A000E3CFC5E0FCCF0F3F1007F1F2C4010E942B
:1054B000DB1308171907C0F6DECFFE018491B8018F
:1054C0000E949B297C012196DACFA0E0B0E0EBE6B8
:1054D000FAE20C948A2C682E962E5A016901780102
:1054E0000E94CF13782E892E0431110530F10F3F21
:1054F000100731F1C80164E170E00E94722C162F90
:10550000072F612F702F862D0E944029EC01892BD7
:10551000C9F0FFEFEF16FF06A1F3872D982D0E942B
:10552000DB13E816F90668F784E98093BC00CE0126
:10553000CDB7DEB7EEE00C94A62C11E000E0E1CF91
:1055400015E0FCCFB701892D0E949B29EC01850154
:10555000CA0CDB1C0C151D0539F3209729F7B70180
:10556000F80181918F010E949B29EC01F3CF8EE11C
:105570004A9B02C08A95E1F74A9BFECF08955A984C
:1055800080E28A95F1F75A9A0895FC013BE03A953A
:10559000F1F798E020E080E031E040E14A95F1F752
:1055A000880F4A9B02C08160232742E04A95F1F7A9
:1055B000000040E14A95F1F79A9579F790E19A95C4
:1055C000F1F799B132E03A95F1F7000040E14A95E0
:1055D000F1F792FB992790F992272081920F9083FF
:1055E0000895A1E0B0E0E7EFFAE20C94922C198262
:1055F0008C017C01E60EF11C0E94B72ACE010196B7
:105600000E94C52AF80181938F01EE15FF05A1F7CD
:1056100081E09981911180E02196E6E00C94AE2C16
:10562000529A5A9A089552985A9AEA9AE9E6F0E0FC
:1056300080818F7C808308956150770B91E001C059
:10564000990F6A95EAF7692F90E021E0611108C08F
:10565000911599F05A9A80E28A95F1F75A9808952F
:10566000362F3823311539F05A9A922730E23A957D
:10567000F1F76695EBCF5A98F9CF5A98ECCFFF9295
:105680000F931F93CF93DF93EC018C01060F111D35
:10569000F9900E94BF2A68E08F2D0E941C2BC01732
:1056A000D107B1F7CDB7DEB7E5E00C94AF2C1F9270
:1056B0000F920FB60F9211240F931F932F933F93C6
:1056C0004F935F936F937F938F939F93AF93BF930A
:1056D000EF93FF93CF93DF930F92CDB7DEB719828D
:1056E0000E94B72ACE0101960E94C52A082F06956E
:1056F00006950695982F92959570202F2570920FFC
:10570000292F237096959695920F982797708981E7
:10571000892B811509F05CC0063008F059C080E182
:105720008A95F1F75A9A529A82E08A95F1F700C069
:105730005A9888E0089F80011124D801A15EBE4FCD
:105740001696ED91FC9117973097A9F060913C0265
:1057500070913D0214962D913C911597260F371F9D
:1057600011968D919C911297680F791F13964C9109
:1057700013978C910995F801E15EFE4F63816115E5
:1057800051F020913C0230913D0284819581820F3D
:10579000931F0E943F2B0E94BF2A80E18A95F1F758
:1057A0005A9852985A9A80E18A95F1F7F801E15E89
:1057B000FE4F6081611551F020913C0230913D0215
:1057C00081819281820F931F0E94F12A0E94B72A41
:1057D0000F90DF91CF91FF91EF91BF91AF919F918A
:1057E0008F917F916F915F914F913F912F911F9179
:1057F0000F910F900FBE0F901F9018950F931F934E
:10580000CF93DF938C0106970CF064C0F894529A02
:105810005A9885E08A95F1F70000C02FC695C570AB
:10582000802F8570C80F8C2F8370C695C69593E026
:10583000000F111F9A95E1F7C80FC8018C2BEC01DE
:105840000E94BF2A00C068E08C2F0E941C2B90E1B0
:105850009A95F1F752985A9A4A9B35C087E090E0A2
:105860004A9933C0F801E15EFE4F6381611561F032
:1058700020913C0230913D0284819581820F931FDB
:105880000E94F12A811519F10E94B72A80E28A95B7
:10589000F1F75A98529A90E19A95F1F7F801E15E82
:1058A000FE4F6081611551F020913C0230913D0224
:1058B00081819281820F931F0E943F2B0E94BF2AF9
:1058C000789481E008C000C0C7CF019749F4529A8C
:1058D0005A9A789480E0DF91CF911F910F910895AB
:1058E00000C0BECFAA1BBB1B51E107C0AA1FBB1F34
:1058F000A617B70710F0A61BB70B881F991F5A955C
:10590000A9F780959095BC01CD0108952F923F9203
:105910004F925F926F927F928F929F92AF92BF92BF
:10592000CF92DF92EF92FF920F931F93CF93DF936B
:10593000CDB7DEB7CA1BDB0B0FB6F894DEBF0FBEC8
:10594000CDBF09942A88398848885F846E847D8415
:105950008C849B84AA84B984C884DF80EE80FD8017
:105960000C811B81AA81B981CE0FD11D0FB6F8948D
:10597000DEBF0FBECDBFED010895992778E0880FF7
:10598000991F961708F0961B881F7A95C9F780957E
:10599000089597FB072E16F4009407D077FD09D0E1
:1059A0000E94722C07FC05D03EF4909581959F4F84
:1059B0000895709561957F4F0895EE0FFF1F059034
:1059C000F491E02D09948F929F92AF92BF92CF9263
:1059D000DF92EF92FF92CF93DF93EC0168817981A0
:1059E0008A819B81611571058105910521F464E22D
:1059F00079ED8BE597E02DE133EF41E050E00E9437
:105A0000B72D49015A019B01AC01A7EAB1E40E94FC
:105A1000D62D6B017C01ACEEB4EFA50194010E9480
:105A2000E42DDC01CB018C0D9D1DAE1DBF1DB7FF0C
:105A300003C00197A109B04888839983AA83BB83D7
:105A40009F77DF91CF91FF90EF90DF90CF90BF9045
:105A5000AF909F908F9008950E94E32C089580E06E
:105A600091E00E94E32C0895B0E0A0E08093000153
:105A700090930101A0930201B09303010895FB01EB
:105A8000DC0102C005900D9241505040D8F70895B6
:105A9000FB01DC0104C08D910190801921F441507B
:105AA0005040C8F7881B990B0895FB01DC0102C028
:105AB00001900D9241505040D8F70895DC0101C08B
:105AC0006D9341505040E0F70895DC01CB01FC019B
:105AD000F999FECF06C0F2BDE1BDF89A319600B447
